{
  "contractName": "MyToken",
  "abi": [
    {
      "inputs": [
        {
          "internalType": "uint256",
          "name": "_initialSupply",
          "type": "uint256"
        }
      ],
      "stateMutability": "nonpayable",
      "type": "constructor"
    },
    {
      "anonymous": false,
      "inputs": [
        {
          "indexed": true,
          "internalType": "address",
          "name": "_owner",
          "type": "address"
        },
        {
          "indexed": true,
          "internalType": "address",
          "name": "_spender",
          "type": "address"
        },
        {
          "indexed": false,
          "internalType": "uint256",
          "name": "_value",
          "type": "uint256"
        }
      ],
      "name": "Approval",
      "type": "event"
    },
    {
      "anonymous": false,
      "inputs": [
        {
          "indexed": false,
          "internalType": "uint256",
          "name": "amount",
          "type": "uint256"
        }
      ],
      "name": "Burned",
      "type": "event"
    },
    {
      "anonymous": false,
      "inputs": [
        {
          "indexed": true,
          "internalType": "address",
          "name": "_from",
          "type": "address"
        },
        {
          "indexed": true,
          "internalType": "address",
          "name": "_to",
          "type": "address"
        },
        {
          "indexed": false,
          "internalType": "uint256",
          "name": "_value",
          "type": "uint256"
        }
      ],
      "name": "Transfer",
      "type": "event"
    },
    {
      "inputs": [
        {
          "internalType": "address",
          "name": "",
          "type": "address"
        },
        {
          "internalType": "address",
          "name": "",
          "type": "address"
        }
      ],
      "name": "allowance",
      "outputs": [
        {
          "internalType": "uint256",
          "name": "",
          "type": "uint256"
        }
      ],
      "stateMutability": "view",
      "type": "function"
    },
    {
      "inputs": [
        {
          "internalType": "address",
          "name": "",
          "type": "address"
        }
      ],
      "name": "balanceOf",
      "outputs": [
        {
          "internalType": "uint256",
          "name": "",
          "type": "uint256"
        }
      ],
      "stateMutability": "view",
      "type": "function"
    },
    {
      "inputs": [],
      "name": "burnStartTime",
      "outputs": [
        {
          "internalType": "uint256",
          "name": "",
          "type": "uint256"
        }
      ],
      "stateMutability": "view",
      "type": "function"
    },
    {
      "inputs": [],
      "name": "decimals",
      "outputs": [
        {
          "internalType": "uint8",
          "name": "",
          "type": "uint8"
        }
      ],
      "stateMutability": "view",
      "type": "function"
    },
    {
      "inputs": [
        {
          "internalType": "address",
          "name": "",
          "type": "address"
        }
      ],
      "name": "eligibleOwners",
      "outputs": [
        {
          "internalType": "bool",
          "name": "",
          "type": "bool"
        }
      ],
      "stateMutability": "view",
      "type": "function"
    },
    {
      "inputs": [],
      "name": "feePerTransaction",
      "outputs": [
        {
          "internalType": "uint256",
          "name": "",
          "type": "uint256"
        }
      ],
      "stateMutability": "view",
      "type": "function"
    },
    {
      "inputs": [],
      "name": "name",
      "outputs": [
        {
          "internalType": "string",
          "name": "",
          "type": "string"
        }
      ],
      "stateMutability": "view",
      "type": "function"
    },
    {
      "inputs": [
        {
          "internalType": "uint256",
          "name": "",
          "type": "uint256"
        }
      ],
      "name": "owners",
      "outputs": [
        {
          "internalType": "address",
          "name": "",
          "type": "address"
        }
      ],
      "stateMutability": "view",
      "type": "function"
    },
    {
      "inputs": [],
      "name": "symbol",
      "outputs": [
        {
          "internalType": "string",
          "name": "",
          "type": "string"
        }
      ],
      "stateMutability": "view",
      "type": "function"
    },
    {
      "inputs": [],
      "name": "totalSupply",
      "outputs": [
        {
          "internalType": "uint256",
          "name": "",
          "type": "uint256"
        }
      ],
      "stateMutability": "view",
      "type": "function"
    },
    {
      "inputs": [],
      "name": "voteDuration",
      "outputs": [
        {
          "internalType": "uint256",
          "name": "",
          "type": "uint256"
        }
      ],
      "stateMutability": "view",
      "type": "function"
    },
    {
      "inputs": [
        {
          "internalType": "address",
          "name": "_candidateAddress",
          "type": "address"
        }
      ],
      "name": "addCandidate",
      "outputs": [],
      "stateMutability": "nonpayable",
      "type": "function"
    },
    {
      "inputs": [
        {
          "internalType": "address",
          "name": "_candidateAddress",
          "type": "address"
        },
        {
          "internalType": "bool",
          "name": "_choice",
          "type": "bool"
        }
      ],
      "name": "vote",
      "outputs": [],
      "stateMutability": "nonpayable",
      "type": "function"
    },
    {
      "inputs": [
        {
          "internalType": "address",
          "name": "_candidateAddress",
          "type": "address"
        }
      ],
      "name": "endVote",
      "outputs": [
        {
          "internalType": "bool",
          "name": "decision",
          "type": "bool"
        }
      ],
      "stateMutability": "nonpayable",
      "type": "function"
    },
    {
      "inputs": [
        {
          "internalType": "address",
          "name": "_to",
          "type": "address"
        },
        {
          "internalType": "uint256",
          "name": "_value",
          "type": "uint256"
        }
      ],
      "name": "transfer",
      "outputs": [
        {
          "internalType": "bool",
          "name": "success",
          "type": "bool"
        }
      ],
      "stateMutability": "payable",
      "type": "function"
    },
    {
      "inputs": [
        {
          "internalType": "address",
          "name": "_spender",
          "type": "address"
        },
        {
          "internalType": "uint256",
          "name": "_value",
          "type": "uint256"
        }
      ],
      "name": "approve",
      "outputs": [
        {
          "internalType": "bool",
          "name": "success",
          "type": "bool"
        }
      ],
      "stateMutability": "nonpayable",
      "type": "function"
    },
    {
      "inputs": [
        {
          "internalType": "address",
          "name": "_from",
          "type": "address"
        },
        {
          "internalType": "address",
          "name": "_to",
          "type": "address"
        },
        {
          "internalType": "uint256",
          "name": "_value",
          "type": "uint256"
        }
      ],
      "name": "transferFrom",
      "outputs": [
        {
          "internalType": "bool",
          "name": "",
          "type": "bool"
        }
      ],
      "stateMutability": "nonpayable",
      "type": "function"
    },
    {
      "inputs": [
        {
          "internalType": "uint256",
          "name": "_value",
          "type": "uint256"
        }
      ],
      "name": "burn",
      "outputs": [
        {
          "internalType": "bool",
          "name": "success",
          "type": "bool"
        }
      ],
      "stateMutability": "nonpayable",
      "type": "function"
    }
  ],
  "bytecode": "0x60806040526040518060400160405280601081526020017f56616c546f6b656e4275726e46756c6c00000000000000000000000000000000815250600090805190602001906200005192919062000848565b506040518060400160405280600581526020017f564c544246000000000000000000000000000000000000000000000000000000815250600190805190602001906200009f92919062000848565b5060016003556000600460146101000a81548160ff021916908360ff160217905550620151804201600755348015620000d757600080fd5b5060405162002f0638038062002f0683398181016040526020811015620000fd57600080fd5b810190808051906020019092919050505033600460006101000a81548173ffffffffffffffffffffffffffffffffffffffff021916908373ffffffffffffffffffffffffffffffffffffffff1602179055506040518060a00160405280600460009054906101000a900473ffffffffffffffffffffffffffffffffffffffff1673ffffffffffffffffffffffffffffffffffffffff1673ffffffffffffffffffffffffffffffffffffffff1681526020017337ca6809b41b730c1c3a5b2dfe82318bfae4b29a73ffffffffffffffffffffffffffffffffffffffff1673ffffffffffffffffffffffffffffffffffffffff168152602001732371b0ed8dc12c6f3692c4934442880eba50773f73ffffffffffffffffffffffffffffffffffffffff1673ffffffffffffffffffffffffffffffffffffffff16815260200173d07dffa0006d9fea011e26479d55e8bcb2a8ae8873ffffffffffffffffffffffffffffffffffffffff1673ffffffffffffffffffffffffffffffffffffffff16815260200173a42fc7ae13ff09700f8169bcd0e26834e8d2675073ffffffffffffffffffffffffffffffffffffffff1673ffffffffffffffffffffffffffffffffffffffff168152506005906005620002d6929190620008cf565b506000620002f860058054905083620004fd60201b6200225e1790919060201c565b905060006200031b600580549050836200054f60201b620022a81790919060201c565b905060008090505b6005805490508110156200044b576001600b6000600584815481106200034557fe5b9060005260206000200160009054906101000a900473ffffffffffffffffffffffffffffffffffffffff1673ffffffffffffffffffffffffffffffffffffffff1673ffffffffffffffffffffffffffffffffffffffff16815260200190815260200160002060006101000a81548160ff021916908315150217905550826008600060058481548110620003d457fe5b9060005260206000200160009054906101000a900473ffffffffffffffffffffffffffffffffffffffff1673ffffffffffffffffffffffffffffffffffffffff1673ffffffffffffffffffffffffffffffffffffffff16815260200190815260200160002081905550808060010191505062000323565b50620004668184620005a160201b620020cc1790919060201c565b600281905550600460009054906101000a900473ffffffffffffffffffffffffffffffffffffffff1673ffffffffffffffffffffffffffffffffffffffff16600073ffffffffffffffffffffffffffffffffffffffff167fddf252ad1be2c89b69c2b068fc378daa952ba7f163c4a11628f55a4df523b3ef856040518082815260200191505060405180910390a3505050620009cc565b60006200054783836040518060400160405280601a81526020017f536166654d6174683a206469766973696f6e206279207a65726f000000000000815250620005f360201b60201c565b905092915050565b60006200059983836040518060400160405280601881526020017f536166654d6174683a206d6f64756c6f206279207a65726f0000000000000000815250620006be60201b60201c565b905092915050565b6000620005eb83836040518060400160405280601e81526020017f536166654d6174683a207375627472616374696f6e206f766572666c6f7700008152506200078460201b60201c565b905092915050565b60008083118290620006a3576040517f08c379a00000000000000000000000000000000000000000000000000000000081526004018080602001828103825283818151815260200191508051906020019080838360005b83811015620006675780820151818401526020810190506200064a565b50505050905090810190601f168015620006955780820380516001836020036101000a031916815260200191505b509250505060405180910390fd5b506000838581620006b057fe5b049050809150509392505050565b60008083141582906200076f576040517f08c379a00000000000000000000000000000000000000000000000000000000081526004018080602001828103825283818151815260200191508051906020019080838360005b838110156200073357808201518184015260208101905062000716565b50505050905090810190601f168015620007615780820380516001836020036101000a031916815260200191505b509250505060405180910390fd5b508284816200077a57fe5b0690509392505050565b600083831115829062000835576040517f08c379a00000000000000000000000000000000000000000000000000000000081526004018080602001828103825283818151815260200191508051906020019080838360005b83811015620007f9578082015181840152602081019050620007dc565b50505050905090810190601f168015620008275780820380516001836020036101000a031916815260200191505b509250505060405180910390fd5b5060008385039050809150509392505050565b828054600181600116156101000203166002900490600052602060002090601f016020900481019282601f106200088b57805160ff1916838001178555620008bc565b82800160010185558215620008bc579182015b82811115620008bb5782518255916020019190600101906200089e565b5b509050620008cb91906200095e565b5090565b8280548282559060005260206000209081019282156200094b579160200282015b828111156200094a5782518260006101000a81548173ffffffffffffffffffffffffffffffffffffffff021916908373ffffffffffffffffffffffffffffffffffffffff16021790555091602001919060010190620008f0565b5b5090506200095a919062000986565b5090565b6200098391905b808211156200097f57600081600090555060010162000965565b5090565b90565b620009c991905b80821115620009c557600081816101000a81549073ffffffffffffffffffffffffffffffffffffffff0219169055506001016200098d565b5090565b90565b61252a80620009dc6000396000f3fe6080604052600436106101095760003560e01c8063635882eb1161009557806395d89b411161006457806395d89b411461056e578063a9059cbb146105fe578063bd041c4d14610664578063cb07b6e2146106c1578063dd62ed3e1461072a57610109565b8063635882eb1461044a57806364a8e526146104b357806370a08231146104de5780637e279efe1461054357610109565b806323b872dd116100dc57806323b872dd146102b7578063313ce5671461034a5780633acd75f81461037b57806342966c68146103cc578063563644991461041f57610109565b8063025e7c271461010e57806306fdde0314610189578063095ea7b31461021957806318160ddd1461028c575b600080fd5b34801561011a57600080fd5b506101476004803603602081101561013157600080fd5b81019080803590602001909291905050506107af565b604051808273ffffffffffffffffffffffffffffffffffffffff1673ffffffffffffffffffffffffffffffffffffffff16815260200191505060405180910390f35b34801561019557600080fd5b5061019e6107eb565b6040518080602001828103825283818151815260200191508051906020019080838360005b838110156101de5780820151818401526020810190506101c3565b50505050905090810190601f16801561020b5780820380516001836020036101000a031916815260200191505b509250505060405180910390f35b34801561022557600080fd5b506102726004803603604081101561023c57600080fd5b81019080803573ffffffffffffffffffffffffffffffffffffffff16906020019092919080359060200190929190505050610889565b604051808215151515815260200191505060405180910390f35b34801561029857600080fd5b506102a161097b565b6040518082815260200191505060405180910390f35b3480156102c357600080fd5b50610330600480360360608110156102da57600080fd5b81019080803573ffffffffffffffffffffffffffffffffffffffff169060200190929190803573ffffffffffffffffffffffffffffffffffffffff16906020019092919080359060200190929190505050610981565b604051808215151515815260200191505060405180910390f35b34801561035657600080fd5b5061035f610dd3565b604051808260ff1660ff16815260200191505060405180910390f35b34801561038757600080fd5b506103ca6004803603602081101561039e57600080fd5b81019080803573ffffffffffffffffffffffffffffffffffffffff169060200190929190505050610de6565b005b3480156103d857600080fd5b50610405600480360360208110156103ef57600080fd5b8101908080359060200190929190505050611281565b604051808215151515815260200191505060405180910390f35b34801561042b57600080fd5b506104346114fe565b6040518082815260200191505060405180910390f35b34801561045657600080fd5b506104996004803603602081101561046d57600080fd5b81019080803573ffffffffffffffffffffffffffffffffffffffff169060200190929190505050611504565b604051808215151515815260200191505060405180910390f35b3480156104bf57600080fd5b506104c8611524565b6040518082815260200191505060405180910390f35b3480156104ea57600080fd5b5061052d6004803603602081101561050157600080fd5b81019080803573ffffffffffffffffffffffffffffffffffffffff16906020019092919050505061152a565b6040518082815260200191505060405180910390f35b34801561054f57600080fd5b50610558611542565b6040518082815260200191505060405180910390f35b34801561057a57600080fd5b50610583611548565b6040518080602001828103825283818151815260200191508051906020019080838360005b838110156105c35780820151818401526020810190506105a8565b50505050905090810190601f1680156105f05780820380516001836020036101000a031916815260200191505b509250505060405180910390f35b61064a6004803603604081101561061457600080fd5b81019080803573ffffffffffffffffffffffffffffffffffffffff169060200190929190803590602001909291905050506115e6565b604051808215151515815260200191505060405180910390f35b34801561067057600080fd5b506106bf6004803603604081101561068757600080fd5b81019080803573ffffffffffffffffffffffffffffffffffffffff169060200190929190803515159060200190929190505050611925565b005b3480156106cd57600080fd5b50610710600480360360208110156106e457600080fd5b81019080803573ffffffffffffffffffffffffffffffffffffffff169060200190929190505050611d52565b604051808215151515815260200191505060405180910390f35b34801561073657600080fd5b506107996004803603604081101561074d57600080fd5b81019080803573ffffffffffffffffffffffffffffffffffffffff169060200190929190803573ffffffffffffffffffffffffffffffffffffffff1690602001909291905050506120a7565b6040518082815260200191505060405180910390f35b600581815481106107bc57fe5b906000526020600020016000915054906101000a900473ffffffffffffffffffffffffffffffffffffffff1681565b60008054600181600116156101000203166002900480601f0160208091040260200160405190810160405280929190818152602001828054600181600116156101000203166002900480156108815780601f1061085657610100808354040283529160200191610881565b820191906000526020600020905b81548152906001019060200180831161086457829003601f168201915b505050505081565b600081600960003373ffffffffffffffffffffffffffffffffffffffff1673ffffffffffffffffffffffffffffffffffffffff16815260200190815260200160002060008573ffffffffffffffffffffffffffffffffffffffff1673ffffffffffffffffffffffffffffffffffffffff168152602001908152602001600020819055508273ffffffffffffffffffffffffffffffffffffffff163373ffffffffffffffffffffffffffffffffffffffff167f8c5be1e5ebec7d5bd14f71427d1e84f3dd0314c0f7b2291e5b200ac8c7c3b925846040518082815260200191505060405180910390a36001905092915050565b60025481565b600081600860008673ffffffffffffffffffffffffffffffffffffffff1673ffffffffffffffffffffffffffffffffffffffff168152602001908152602001600020541015610a38576040517f08c379a00000000000000000000000000000000000000000000000000000000081526004018080602001828103825260148152602001807f696e73756666696369656e742062616c616e636500000000000000000000000081525060200191505060405180910390fd5b81600960008673ffffffffffffffffffffffffffffffffffffffff1673ffffffffffffffffffffffffffffffffffffffff16815260200190815260200160002060003373ffffffffffffffffffffffffffffffffffffffff1673ffffffffffffffffffffffffffffffffffffffff168152602001908152602001600020541015610b2a576040517f08c379a00000000000000000000000000000000000000000000000000000000081526004018080602001828103825260128152602001807f616c6c6f77616e6365206578636565646564000000000000000000000000000081525060200191505060405180910390fd5b610b7c82600860008773ffffffffffffffffffffffffffffffffffffffff1673ffffffffffffffffffffffffffffffffffffffff168152602001908152602001600020546120cc90919063ffffffff16565b600860008673ffffffffffffffffffffffffffffffffffffffff1673ffffffffffffffffffffffffffffffffffffffff16815260200190815260200160002081905550610c1182600860008673ffffffffffffffffffffffffffffffffffffffff1673ffffffffffffffffffffffffffffffffffffffff1681526020019081526020016000205461211690919063ffffffff16565b600860008573ffffffffffffffffffffffffffffffffffffffff1673ffffffffffffffffffffffffffffffffffffffff16815260200190815260200160002081905550610ce382600960008773ffffffffffffffffffffffffffffffffffffffff1673ffffffffffffffffffffffffffffffffffffffff16815260200190815260200160002060003373ffffffffffffffffffffffffffffffffffffffff1673ffffffffffffffffffffffffffffffffffffffff168152602001908152602001600020546120cc90919063ffffffff16565b600960008673ffffffffffffffffffffffffffffffffffffffff1673ffffffffffffffffffffffffffffffffffffffff16815260200190815260200160002060003373ffffffffffffffffffffffffffffffffffffffff1673ffffffffffffffffffffffffffffffffffffffff168152602001908152602001600020819055508273ffffffffffffffffffffffffffffffffffffffff168473ffffffffffffffffffffffffffffffffffffffff167fddf252ad1be2c89b69c2b068fc378daa952ba7f163c4a11628f55a4df523b3ef846040518082815260200191505060405180910390a3600190509392505050565b600460149054906101000a900460ff1681565b60011515600b60003373ffffffffffffffffffffffffffffffffffffffff1673ffffffffffffffffffffffffffffffffffffffff16815260200190815260200160002060009054906101000a900460ff16151514610eac576040517f08c379a00000000000000000000000000000000000000000000000000000000081526004018080602001828103825260148152602001807f596f7520617265206e6f7420616e206f776e657200000000000000000000000081525060200191505060405180910390fd5b60001515600b60008373ffffffffffffffffffffffffffffffffffffffff1673ffffffffffffffffffffffffffffffffffffffff16815260200190815260200160002060009054906101000a900460ff16151514610f55576040517f08c379a000000000000000000000000000000000000000000000000000000000815260040180806020018281038252603481526020018061247a6034913960400191505060405180910390fd5b60001515600a60008373ffffffffffffffffffffffffffffffffffffffff1673ffffffffffffffffffffffffffffffffffffffff16815260200190815260200160002060020160059054906101000a900460ff16151514611001576040517f08c379a00000000000000000000000000000000000000000000000000000000081526004018080602001828103825260238152602001806124d26023913960400191505060405180910390fd5b33600a60008373ffffffffffffffffffffffffffffffffffffffff1673ffffffffffffffffffffffffffffffffffffffff16815260200190815260200160002060000160006101000a81548173ffffffffffffffffffffffffffffffffffffffff021916908373ffffffffffffffffffffffffffffffffffffffff1602179055506001600a60008373ffffffffffffffffffffffffffffffffffffffff1673ffffffffffffffffffffffffffffffffffffffff16815260200190815260200160002060010160003373ffffffffffffffffffffffffffffffffffffffff1673ffffffffffffffffffffffffffffffffffffffff16815260200190815260200160002060006101000a81548160ff021916908360ff1602179055506001600a60008373ffffffffffffffffffffffffffffffffffffffff1673ffffffffffffffffffffffffffffffffffffffff16815260200190815260200160002060020160006101000a81548163ffffffff021916908363ffffffff160217905550600b60008273ffffffffffffffffffffffffffffffffffffffff1673ffffffffffffffffffffffffffffffffffffffff16815260200190815260200160002060009054906101000a900460ff16600a60008373ffffffffffffffffffffffffffffffffffffffff1673ffffffffffffffffffffffffffffffffffffffff16815260200190815260200160002060020160046101000a81548160ff0219169083151502179055506001600a60008373ffffffffffffffffffffffffffffffffffffffff1673ffffffffffffffffffffffffffffffffffffffff16815260200190815260200160002060020160056101000a81548160ff02191690831515021790555050565b600060011515600b60003373ffffffffffffffffffffffffffffffffffffffff1673ffffffffffffffffffffffffffffffffffffffff16815260200190815260200160002060009054906101000a900460ff16151514611349576040517f08c379a00000000000000000000000000000000000000000000000000000000081526004018080602001828103825260148152602001807f596f7520617265206e6f7420616e206f776e657200000000000000000000000081525060200191505060405180910390fd5b6007544211156114f85781600860003373ffffffffffffffffffffffffffffffffffffffff1673ffffffffffffffffffffffffffffffffffffffff168152602001908152602001600020541015611408576040517f08c379a00000000000000000000000000000000000000000000000000000000081526004018080602001828103825260148152602001807f62616c616e636520696e73756666696369656e7400000000000000000000000081525060200191505060405180910390fd5b61145a82600860003373ffffffffffffffffffffffffffffffffffffffff1673ffffffffffffffffffffffffffffffffffffffff168152602001908152602001600020546120cc90919063ffffffff16565b600860003373ffffffffffffffffffffffffffffffffffffffff1673ffffffffffffffffffffffffffffffffffffffff168152602001908152602001600020819055506114b2826002546120cc90919063ffffffff16565b6002819055507fd83c63197e8e676d80ab0122beba9a9d20f3828839e9a1d6fe81d242e9cd7e6e826040518082815260200191505060405180910390a1600190506114f9565b5b919050565b60065481565b600b6020528060005260406000206000915054906101000a900460ff1681565b60035481565b60086020528060005260406000206000915090505481565b60075481565b60018054600181600116156101000203166002900480601f0160208091040260200160405190810160405280929190818152602001828054600181600116156101000203166002900480156115de5780601f106115b3576101008083540402835291602001916115de565b820191906000526020600020905b8154815290600101906020018083116115c157829003601f168201915b505050505081565b600081600860003373ffffffffffffffffffffffffffffffffffffffff1673ffffffffffffffffffffffffffffffffffffffff16815260200190815260200160002054101561169d576040517f08c379a000000000000000000000000000000000000000000000000000000000815260040180806020018281038252601e8152602001807f6572726f722c2062616c616e636520697320696e73756666696369656e74000081525060200191505060405180910390fd5b6116ef82600860003373ffffffffffffffffffffffffffffffffffffffff1673ffffffffffffffffffffffffffffffffffffffff168152602001908152602001600020546120cc90919063ffffffff16565b600860003373ffffffffffffffffffffffffffffffffffffffff1673ffffffffffffffffffffffffffffffffffffffff1681526020019081526020016000208190555061179861174a600354846120cc90919063ffffffff16565b600860008673ffffffffffffffffffffffffffffffffffffffff1673ffffffffffffffffffffffffffffffffffffffff1681526020019081526020016000205461211690919063ffffffff16565b600860008573ffffffffffffffffffffffffffffffffffffffff1673ffffffffffffffffffffffffffffffffffffffff1681526020019081526020016000208190555061185160035460086000600460009054906101000a900473ffffffffffffffffffffffffffffffffffffffff1673ffffffffffffffffffffffffffffffffffffffff1673ffffffffffffffffffffffffffffffffffffffff1681526020019081526020016000205461211690919063ffffffff16565b60086000600460009054906101000a900473ffffffffffffffffffffffffffffffffffffffff1673ffffffffffffffffffffffffffffffffffffffff1673ffffffffffffffffffffffffffffffffffffffff168152602001908152602001600020819055508273ffffffffffffffffffffffffffffffffffffffff163373ffffffffffffffffffffffffffffffffffffffff167fddf252ad1be2c89b69c2b068fc378daa952ba7f163c4a11628f55a4df523b3ef846040518082815260200191505060405180910390a36001905092915050565b60011515600b60003373ffffffffffffffffffffffffffffffffffffffff1673ffffffffffffffffffffffffffffffffffffffff16815260200190815260200160002060009054906101000a900460ff161515146119eb576040517f08c379a00000000000000000000000000000000000000000000000000000000081526004018080602001828103825260148152602001807f596f7520617265206e6f7420616e206f776e657200000000000000000000000081525060200191505060405180910390fd5b600a60008373ffffffffffffffffffffffffffffffffffffffff1673ffffffffffffffffffffffffffffffffffffffff16815260200190815260200160002060020160059054906101000a900460ff16611a90576040517f08c379a00000000000000000000000000000000000000000000000000000000081526004018080602001828103825260248152602001806124ae6024913960400191505060405180910390fd5b6000600a60008473ffffffffffffffffffffffffffffffffffffffff1673ffffffffffffffffffffffffffffffffffffffff16815260200190815260200160002060010160003373ffffffffffffffffffffffffffffffffffffffff1673ffffffffffffffffffffffffffffffffffffffff16815260200190815260200160002060009054906101000a900460ff1660ff1614611b95576040517f08c379a00000000000000000000000000000000000000000000000000000000081526004018080602001828103825260178152602001807f596f75206861766520616c726561647920766f7465642100000000000000000081525060200191505060405180910390fd5b8015611cb4576001600a60008473ffffffffffffffffffffffffffffffffffffffff1673ffffffffffffffffffffffffffffffffffffffff16815260200190815260200160002060010160003373ffffffffffffffffffffffffffffffffffffffff1673ffffffffffffffffffffffffffffffffffffffff16815260200190815260200160002060006101000a81548160ff021916908360ff160217905550600a60008373ffffffffffffffffffffffffffffffffffffffff1673ffffffffffffffffffffffffffffffffffffffff168152602001908152602001600020600201600081819054906101000a900463ffffffff168092919060010191906101000a81548163ffffffff021916908363ffffffff16021790555050611d4e565b6002600a60008473ffffffffffffffffffffffffffffffffffffffff1673ffffffffffffffffffffffffffffffffffffffff16815260200190815260200160002060010160003373ffffffffffffffffffffffffffffffffffffffff1673ffffffffffffffffffffffffffffffffffffffff16815260200190815260200160002060006101000a81548160ff021916908360ff1602179055505b5050565b600060011515600b60003373ffffffffffffffffffffffffffffffffffffffff1673ffffffffffffffffffffffffffffffffffffffff16815260200190815260200160002060009054906101000a900460ff16151514611e1a576040517f08c379a00000000000000000000000000000000000000000000000000000000081526004018080602001828103825260148152602001807f596f7520617265206e6f7420616e206f776e657200000000000000000000000081525060200191505060405180910390fd5b600260058054905081611e2957fe5b04600a60008473ffffffffffffffffffffffffffffffffffffffff1673ffffffffffffffffffffffffffffffffffffffff16815260200190815260200160002060020160009054906101000a900463ffffffff1663ffffffff161115611ff5576005829080600181540180825580915050600190039060005260206000200160009091909190916101000a81548173ffffffffffffffffffffffffffffffffffffffff021916908373ffffffffffffffffffffffffffffffffffffffff1602179055506001600b60008473ffffffffffffffffffffffffffffffffffffffff1673ffffffffffffffffffffffffffffffffffffffff16815260200190815260200160002060006101000a81548160ff021916908315150217905550600a60008373ffffffffffffffffffffffffffffffffffffffff1673ffffffffffffffffffffffffffffffffffffffff168152602001908152602001600020600080820160006101000a81549073ffffffffffffffffffffffffffffffffffffffff02191690556002820160006101000a81549063ffffffff02191690556002820160046101000a81549060ff02191690556002820160056101000a81549060ff02191690555050600190506120a2565b600a60008373ffffffffffffffffffffffffffffffffffffffff1673ffffffffffffffffffffffffffffffffffffffff168152602001908152602001600020600080820160006101000a81549073ffffffffffffffffffffffffffffffffffffffff02191690556002820160006101000a81549063ffffffff02191690556002820160046101000a81549060ff02191690556002820160056101000a81549060ff02191690555050600090505b919050565b6009602052816000526040600020602052806000526040600020600091509150505481565b600061210e83836040518060400160405280601e81526020017f536166654d6174683a207375627472616374696f6e206f766572666c6f77000081525061219e565b905092915050565b600080828401905083811015612194576040517f08c379a000000000000000000000000000000000000000000000000000000000815260040180806020018281038252601b8152602001807f536166654d6174683a206164646974696f6e206f766572666c6f77000000000081525060200191505060405180910390fd5b8091505092915050565b600083831115829061224b576040517f08c379a00000000000000000000000000000000000000000000000000000000081526004018080602001828103825283818151815260200191508051906020019080838360005b838110156122105780820151818401526020810190506121f5565b50505050905090810190601f16801561223d5780820380516001836020036101000a031916815260200191505b509250505060405180910390fd5b5060008385039050809150509392505050565b60006122a083836040518060400160405280601a81526020017f536166654d6174683a206469766973696f6e206279207a65726f0000000000008152506122f2565b905092915050565b60006122ea83836040518060400160405280601881526020017f536166654d6174683a206d6f64756c6f206279207a65726f00000000000000008152506123b8565b905092915050565b6000808311829061239e576040517f08c379a00000000000000000000000000000000000000000000000000000000081526004018080602001828103825283818151815260200191508051906020019080838360005b83811015612363578082015181840152602081019050612348565b50505050905090810190601f1680156123905780820380516001836020036101000a031916815260200191505b509250505060405180910390fd5b5060008385816123aa57fe5b049050809150509392505050565b6000808314158290612465576040517f08c379a00000000000000000000000000000000000000000000000000000000081526004018080602001828103825283818151815260200191508051906020019080838360005b8381101561242a57808201518184015260208101905061240f565b50505050905090810190601f1680156124575780820380516001836020036101000a031916815260200191505b509250505060405180910390fd5b5082848161246f57fe5b069050939250505056fe596f752061726520616464696e67206120706572736f6e207468617420697320616c726561647920616d6f6e67206f776e657273746869732061646472657373206973206e6f7420616d6f6e672063616e646964617465735468697320706572736f6e20697320616c726561647920612063616e64696461746521a26469706673582212205e22b3c62597b0a05ec8ca0d4a93f055ebd73557a13e2351b8ba20f56110c9e464736f6c63430006000033",
  "source": "pragma solidity ^0.6.0;\r\n\r\n// import \"../node_modules/@openzeppelin/contracts/math/SafeMath.sol\";\r\n// import \"github.com/OpenZeppelin/openzeppelin-contracts/blob/master/contracts/math/SafeMath.sol\";\r\n// import \"@openzeppelin/contracts/math/SafeMath.sol\";\r\n// import './Voting.sol';\r\n\r\nlibrary SafeMath {\r\n    /**\r\n     * @dev Returns the addition of two unsigned integers, reverting on\r\n     * overflow.\r\n     *\r\n     * Counterpart to Solidity's `+` operator.\r\n     *\r\n     * Requirements:\r\n     *\r\n     * - Addition cannot overflow.\r\n     */\r\n    function add(uint256 a, uint256 b) internal pure returns (uint256) {\r\n        uint256 c = a + b;\r\n        require(c >= a, \"SafeMath: addition overflow\");\r\n\r\n        return c;\r\n    }\r\n\r\n    /**\r\n     * @dev Returns the subtraction of two unsigned integers, reverting on\r\n     * overflow (when the result is negative).\r\n     *\r\n     * Counterpart to Solidity's `-` operator.\r\n     *\r\n     * Requirements:\r\n     *\r\n     * - Subtraction cannot overflow.\r\n     */\r\n    function sub(uint256 a, uint256 b) internal pure returns (uint256) {\r\n        return sub(a, b, \"SafeMath: subtraction overflow\");\r\n    }\r\n\r\n    /**\r\n     * @dev Returns the subtraction of two unsigned integers, reverting with custom message on\r\n     * overflow (when the result is negative).\r\n     *\r\n     * Counterpart to Solidity's `-` operator.\r\n     *\r\n     * Requirements:\r\n     *\r\n     * - Subtraction cannot overflow.\r\n     */\r\n    function sub(uint256 a, uint256 b, string memory errorMessage) internal pure returns (uint256) {\r\n        require(b <= a, errorMessage);\r\n        uint256 c = a - b;\r\n\r\n        return c;\r\n    }\r\n\r\n    /**\r\n     * @dev Returns the multiplication of two unsigned integers, reverting on\r\n     * overflow.\r\n     *\r\n     * Counterpart to Solidity's `*` operator.\r\n     *\r\n     * Requirements:\r\n     *\r\n     * - Multiplication cannot overflow.\r\n     */\r\n    function mul(uint256 a, uint256 b) internal pure returns (uint256) {\r\n        // Gas optimization: this is cheaper than requiring 'a' not being zero, but the\r\n        // benefit is lost if 'b' is also tested.\r\n        // See: https://github.com/OpenZeppelin/openzeppelin-contracts/pull/522\r\n        if (a == 0) {\r\n            return 0;\r\n        }\r\n\r\n        uint256 c = a * b;\r\n        require(c / a == b, \"SafeMath: multiplication overflow\");\r\n\r\n        return c;\r\n    }\r\n\r\n    /**\r\n     * @dev Returns the integer division of two unsigned integers. Reverts on\r\n     * division by zero. The result is rounded towards zero.\r\n     *\r\n     * Counterpart to Solidity's `/` operator. Note: this function uses a\r\n     * `revert` opcode (which leaves remaining gas untouched) while Solidity\r\n     * uses an invalid opcode to revert (consuming all remaining gas).\r\n     *\r\n     * Requirements:\r\n     *\r\n     * - The divisor cannot be zero.\r\n     */\r\n    function div(uint256 a, uint256 b) internal pure returns (uint256) {\r\n        return div(a, b, \"SafeMath: division by zero\");\r\n    }\r\n\r\n    /**\r\n     * @dev Returns the integer division of two unsigned integers. Reverts with custom message on\r\n     * division by zero. The result is rounded towards zero.\r\n     *\r\n     * Counterpart to Solidity's `/` operator. Note: this function uses a\r\n     * `revert` opcode (which leaves remaining gas untouched) while Solidity\r\n     * uses an invalid opcode to revert (consuming all remaining gas).\r\n     *\r\n     * Requirements:\r\n     *\r\n     * - The divisor cannot be zero.\r\n     */\r\n    function div(uint256 a, uint256 b, string memory errorMessage) internal pure returns (uint256) {\r\n        require(b > 0, errorMessage);\r\n        uint256 c = a / b;\r\n        // assert(a == b * c + a % b); // There is no case in which this doesn't hold\r\n\r\n        return c;\r\n    }\r\n\r\n    /**\r\n     * @dev Returns the remainder of dividing two unsigned integers. (unsigned integer modulo),\r\n     * Reverts when dividing by zero.\r\n     *\r\n     * Counterpart to Solidity's `%` operator. This function uses a `revert`\r\n     * opcode (which leaves remaining gas untouched) while Solidity uses an\r\n     * invalid opcode to revert (consuming all remaining gas).\r\n     *\r\n     * Requirements:\r\n     *\r\n     * - The divisor cannot be zero.\r\n     */\r\n    function mod(uint256 a, uint256 b) internal pure returns (uint256) {\r\n        return mod(a, b, \"SafeMath: modulo by zero\");\r\n    }\r\n\r\n    /**\r\n     * @dev Returns the remainder of dividing two unsigned integers. (unsigned integer modulo),\r\n     * Reverts with custom message when dividing by zero.\r\n     *\r\n     * Counterpart to Solidity's `%` operator. This function uses a `revert`\r\n     * opcode (which leaves remaining gas untouched) while Solidity uses an\r\n     * invalid opcode to revert (consuming all remaining gas).\r\n     *\r\n     * Requirements:\r\n     *\r\n     * - The divisor cannot be zero.\r\n     */\r\n    function mod(uint256 a, uint256 b, string memory errorMessage) internal pure returns (uint256) {\r\n        require(b != 0, errorMessage);\r\n        return a % b;\r\n    }\r\n}\r\n\r\ncontract MyToken {\r\n    using SafeMath for uint256;\r\n    string public name = \"ValTokenBurnFull\";\r\n    string public symbol = \"VLTBF\";\r\n    uint256 public totalSupply;\r\n    uint256 public feePerTransaction = 1;\r\n    address private owner;\r\n    uint8 public decimals = 0;\r\n    address[] public owners;\r\n    uint256 public voteDuration;\r\n    //from this time on tokens may be burned +24 hours from 01.07.20\r\n    uint256 public burnStartTime = now + 24 hours;\r\n    \r\n    event Transfer(address indexed _from, address indexed _to, uint256 _value);\r\n    event Approval(address indexed _owner, address indexed _spender, uint256 _value);\r\n    event Burned(uint256 amount);\r\n    \r\n    struct CandidateData {\r\n        address proposal;\r\n        mapping(address => uint8) votes;\r\n        // do we need total votes?\r\n        uint32 positive;\r\n        //we can track only positive number;\r\n        // uint32 negative;\r\n        bool alreadyOwner;\r\n        bool isCandidate;\r\n    }\r\n    \r\n    mapping(address => uint256) public balanceOf;\r\n    mapping(address => mapping(address => uint256)) public allowance;\r\n    mapping(address => CandidateData) private candidates;\r\n    mapping(address => bool) public eligibleOwners;\r\n\r\n    constructor(uint256 _initialSupply) public {\r\n        owner = msg.sender;\r\n        owners = [owner, 0x37cA6809b41B730C1c3A5b2DFE82318BFAE4B29A, 0x2371B0Ed8dC12c6f3692c4934442880EBA50773F,\r\n        0xd07DffA0006d9fea011E26479D55E8Bcb2A8AE88, 0xa42fc7ae13fF09700F8169bCD0e26834E8D26750];\r\n        uint256 tokenPerOwner = _initialSupply.div(owners.length);\r\n        uint256 tokensLeft = tokenPerOwner.mod(owners.length);\r\n        \r\n        for (uint i = 0; i < owners.length; i++ ){\r\n            eligibleOwners[owners[i]] = true; \r\n            balanceOf[owners[i]] = tokenPerOwner;\r\n        }\r\n        \r\n        totalSupply = _initialSupply.sub(tokensLeft);\r\n        //allocate initial supply\r\n        emit Transfer(address(0), owner, _initialSupply);\r\n    }\r\n    \r\n    function addCandidate(address _candidateAddress) public onlyOwners {\r\n        require(eligibleOwners[_candidateAddress] == false, 'You are adding a person that is already among owners');\r\n        require(candidates[_candidateAddress].isCandidate == false, 'This person is already a candidate!');\r\n        candidates[_candidateAddress].proposal = msg.sender;\r\n        candidates[_candidateAddress].votes[msg.sender] = 1;\r\n        candidates[_candidateAddress].positive = 1;\r\n        candidates[_candidateAddress].alreadyOwner = eligibleOwners[_candidateAddress];\r\n        candidates[_candidateAddress].isCandidate = true;\r\n    }\r\n    \r\n    function vote(address _candidateAddress, bool _choice) public onlyOwners {\r\n        require(candidates[_candidateAddress].isCandidate, 'this address is not among candidates');\r\n        require(candidates[_candidateAddress].votes[msg.sender] == 0, 'You have already voted!');\r\n        if(_choice){\r\n            candidates[_candidateAddress].votes[msg.sender] = 1;\r\n            candidates[_candidateAddress].positive++;\r\n        }else {\r\n            candidates[_candidateAddress].votes[msg.sender] = 2;\r\n        }\r\n    }\r\n    \r\n    function endVote(address _candidateAddress) public onlyOwners returns(bool decision) {\r\n        // require(candidates[_candidateAddress].totalVotes == owners.length, 'Not enoght votes to end the voting');\r\n        if(candidates[_candidateAddress].positive > owners.length / 2) {\r\n            owners.push(_candidateAddress);\r\n            eligibleOwners[_candidateAddress] = true;\r\n            delete candidates[_candidateAddress];\r\n            return true;\r\n        }else {\r\n            delete candidates[_candidateAddress];\r\n            return false;\r\n        }\r\n    }\r\n    \r\n      //Transfer function\r\n    function transfer(address _to, uint256 _value)\r\n        public\r\n        payable\r\n        returns (bool success)\r\n    {\r\n        require(balanceOf[msg.sender] >= _value, 'error, balance is insufficient');\r\n        balanceOf[msg.sender] = balanceOf[msg.sender].sub(_value);\r\n        balanceOf[_to] = balanceOf[_to].add(_value.sub(feePerTransaction));\r\n        balanceOf[owner] = balanceOf[owner].add(feePerTransaction);\r\n        //transfer event\r\n        emit Transfer(msg.sender, _to, _value);\r\n        return true;\r\n    }\r\n\r\n    //modifier grands access to owners only\r\n    modifier onlyOwners() {\r\n        require(eligibleOwners[msg.sender] == true, \"You are not an owner\");\r\n        _;\r\n    }\r\n \r\n    //allowance implementation\r\n  \r\n\r\n    function approve(address _spender, uint256 _value) public returns (bool success) {\r\n      allowance[msg.sender][_spender] = _value;\r\n\r\n      //will trigger the approve event\r\n      emit Approval(msg.sender, _spender, _value);\r\n      return true;\r\n  }\r\n\r\n    function transferFrom(address _from, address _to, uint256 _value) public returns(bool) {\r\n      require(balanceOf[_from] >= _value, \"insufficient balance\");\r\n      require(allowance[_from][msg.sender] >= _value, \"allowance exceeded\");\r\n      balanceOf[_from] = balanceOf[_from].sub(_value);\r\n      balanceOf[_to] = balanceOf[_to].add(_value);\r\n      allowance[_from][msg.sender] = allowance[_from][msg.sender].sub(_value);\r\n      emit Transfer(_from, _to, _value);\r\n      return true;\r\n    }\r\n\r\n\r\n\r\n    // burnign function\r\n   function burn(uint256 _value)  public onlyOwners returns (bool success)  {\r\n       //we restrict ourseleves to burn tokens after some perion of time.\r\n       if (now > burnStartTime) {\r\n           //checking that amount is less or equal to user's balance\r\n           require(balanceOf[msg.sender] >= _value, 'balance insufficient');\r\n           //decreasing the users balance by the amount\r\n           balanceOf[msg.sender] = balanceOf[msg.sender].sub(_value);\r\n            //decreasing the totalSupply by the amount\r\n           totalSupply = totalSupply.sub(_value);\r\n           emit Burned(_value);\r\n           return true;\r\n       }\r\n   }\r\n}\r\n\r\n\r\n\r\n\r\n\r\n\r\n\r\n\r\n\r\n\r\n",
  "sourcePath": "D:\\work\\projects\\my-token\\contracts\\VotingToken.sol",
  "compiler": {
    "name": "solc",
    "version": "0.6.0+commit.26b70077.Emscripten.clang"
  },
  "schemaVersion": "3.2.0",
  "updatedAt": "2020-07-03T13:25:16.963Z",
  "devdoc": {
    "methods": {}
  },
  "userdoc": {
    "methods": {}
  }
}