{
  "contractName": "myToken",
  "abi": [
    {
      "inputs": [
        {
          "internalType": "uint256",
          "name": "_initialSupply",
          "type": "uint256"
        }
      ],
      "stateMutability": "nonpayable",
      "type": "constructor"
    },
    {
      "anonymous": false,
      "inputs": [
        {
          "indexed": true,
          "internalType": "address",
          "name": "_from",
          "type": "address"
        },
        {
          "indexed": true,
          "internalType": "address",
          "name": "_to",
          "type": "address"
        },
        {
          "indexed": false,
          "internalType": "uint256",
          "name": "_value",
          "type": "uint256"
        }
      ],
      "name": "Transfer",
      "type": "event"
    },
    {
      "inputs": [
        {
          "internalType": "address",
          "name": "",
          "type": "address"
        }
      ],
      "name": "balanceOf",
      "outputs": [
        {
          "internalType": "uint256",
          "name": "",
          "type": "uint256"
        }
      ],
      "stateMutability": "view",
      "type": "function",
      "constant": true
    },
    {
      "inputs": [],
      "name": "feePerTransaction",
      "outputs": [
        {
          "internalType": "uint256",
          "name": "",
          "type": "uint256"
        }
      ],
      "stateMutability": "view",
      "type": "function",
      "constant": true
    },
    {
      "inputs": [],
      "name": "name",
      "outputs": [
        {
          "internalType": "string",
          "name": "",
          "type": "string"
        }
      ],
      "stateMutability": "view",
      "type": "function",
      "constant": true
    },
    {
      "inputs": [],
      "name": "symbol",
      "outputs": [
        {
          "internalType": "string",
          "name": "",
          "type": "string"
        }
      ],
      "stateMutability": "view",
      "type": "function",
      "constant": true
    },
    {
      "inputs": [],
      "name": "totalSupply",
      "outputs": [
        {
          "internalType": "uint256",
          "name": "",
          "type": "uint256"
        }
      ],
      "stateMutability": "view",
      "type": "function",
      "constant": true
    },
    {
      "inputs": [
        {
          "internalType": "address",
          "name": "_to",
          "type": "address"
        },
        {
          "internalType": "uint256",
          "name": "_value",
          "type": "uint256"
        }
      ],
      "name": "transfer",
      "outputs": [
        {
          "internalType": "bool",
          "name": "success",
          "type": "bool"
        }
      ],
      "stateMutability": "payable",
      "type": "function",
      "payable": true
    }
  ],
  "bytecode": "0x60806040526040518060400160405280600881526020017f56616c546f6b656e0000000000000000000000000000000000000000000000008152506000908051906020019061004f929190610132565b506040518060400160405280600381526020017f564c5400000000000000000000000000000000000000000000000000000000008152506001908051906020019061009b929190610132565b5060016003553480156100ad57600080fd5b50604051610772380380610772833981810160405260208110156100d057600080fd5b810190808051906020019092919050505080600460003373ffffffffffffffffffffffffffffffffffffffff1673ffffffffffffffffffffffffffffffffffffffff1681526020019081526020016000208190555080600281905550506101d7565b828054600181600116156101000203166002900490600052602060002090601f016020900481019282601f1061017357805160ff19168380011785556101a1565b828001600101855582156101a1579182015b828111156101a0578251825591602001919060010190610185565b5b5090506101ae91906101b2565b5090565b6101d491905b808211156101d05760008160009055506001016101b8565b5090565b90565b61058c806101e66000396000f3fe6080604052600436106100555760003560e01c806306fdde031461005a57806318160ddd146100ea57806364a8e5261461011557806370a082311461014057806395d89b41146101a5578063a9059cbb14610235575b600080fd5b34801561006657600080fd5b5061006f61029b565b6040518080602001828103825283818151815260200191508051906020019080838360005b838110156100af578082015181840152602081019050610094565b50505050905090810190601f1680156100dc5780820380516001836020036101000a031916815260200191505b509250505060405180910390f35b3480156100f657600080fd5b506100ff610339565b6040518082815260200191505060405180910390f35b34801561012157600080fd5b5061012a61033f565b6040518082815260200191505060405180910390f35b34801561014c57600080fd5b5061018f6004803603602081101561016357600080fd5b81019080803573ffffffffffffffffffffffffffffffffffffffff169060200190929190505050610345565b6040518082815260200191505060405180910390f35b3480156101b157600080fd5b506101ba61035d565b6040518080602001828103825283818151815260200191508051906020019080838360005b838110156101fa5780820151818401526020810190506101df565b50505050905090810190601f1680156102275780820380516001836020036101000a031916815260200191505b509250505060405180910390f35b6102816004803603604081101561024b57600080fd5b81019080803573ffffffffffffffffffffffffffffffffffffffff169060200190929190803590602001909291905050506103fb565b604051808215151515815260200191505060405180910390f35b60008054600181600116156101000203166002900480601f0160208091040260200160405190810160405280929190818152602001828054600181600116156101000203166002900480156103315780601f1061030657610100808354040283529160200191610331565b820191906000526020600020905b81548152906001019060200180831161031457829003601f168201915b505050505081565b60025481565b60035481565b60046020528060005260406000206000915090505481565b60018054600181600116156101000203166002900480601f0160208091040260200160405190810160405280929190818152602001828054600181600116156101000203166002900480156103f35780601f106103c8576101008083540402835291602001916103f3565b820191906000526020600020905b8154815290600101906020018083116103d657829003601f168201915b505050505081565b600081600460003273ffffffffffffffffffffffffffffffffffffffff1673ffffffffffffffffffffffffffffffffffffffff16815260200190815260200160002054101561044957600080fd5b81600460003373ffffffffffffffffffffffffffffffffffffffff1673ffffffffffffffffffffffffffffffffffffffff168152602001908152602001600020600082825403925050819055506003548203600460008573ffffffffffffffffffffffffffffffffffffffff1673ffffffffffffffffffffffffffffffffffffffff168152602001908152602001600020600082825401925050819055508273ffffffffffffffffffffffffffffffffffffffff163373ffffffffffffffffffffffffffffffffffffffff167fddf252ad1be2c89b69c2b068fc378daa952ba7f163c4a11628f55a4df523b3ef846040518082815260200191505060405180910390a3600190509291505056fea26469706673582212206b8e6e2cb77899015367ea0cd3eac1f0d322f149ccf22ef6ffe94ad1d315f45864736f6c634300060a0033",
  "immutableReferences": {},
  "source": "pragma solidity ^0.6.0;\r\n\r\ncontract myToken {\r\n    string public name = \"ValToken\";\r\n    string public symbol = \"VLT\";\r\n    uint256 public totalSupply;\r\n    uint256 public feePerTransaction = 1;\r\n\r\n    event Transfer(address indexed _from, address indexed _to, uint256 _value);\r\n\r\n    mapping(address => uint256) public balanceOf;\r\n\r\n    constructor(uint256 _initialSupply) public {\r\n        balanceOf[msg.sender] = _initialSupply;\r\n        totalSupply = _initialSupply;\r\n        //allocate initial supply\r\n    }\r\n\r\n    //Transfer function\r\n    function transfer(address _to, uint256 _value)\r\n        public\r\n        payable\r\n        returns (bool success)\r\n    {\r\n        require(balanceOf[tx.origin] >= _value);\r\n        balanceOf[msg.sender] -= _value;\r\n        balanceOf[_to] += _value - feePerTransaction;\r\n        //transfer event\r\n        emit Transfer(msg.sender, _to, _value);\r\n        return true;\r\n    }\r\n}\r\n",
  "sourcePath": "D:\\work\\projects\\my-token\\contracts\\myToken.sol",
  "compiler": {
    "name": "solc",
    "version": "0.6.10+commit.00c0fcaf.Emscripten.clang"
  },
  "schemaVersion": "3.2.0",
  "updatedAt": "2020-06-24T14:42:25.122Z",
  "networkType": "ethereum",
  "devdoc": {
    "methods": {}
  },
  "userdoc": {
    "methods": {}
  }
}