{
  "contractName": "MyToken",
  "abi": [
    {
      "inputs": [
        {
          "internalType": "uint256",
          "name": "_initialSupply",
          "type": "uint256"
        }
      ],
      "stateMutability": "nonpayable",
      "type": "constructor"
    },
    {
      "anonymous": false,
      "inputs": [
        {
          "indexed": true,
          "internalType": "address",
          "name": "_owner",
          "type": "address"
        },
        {
          "indexed": true,
          "internalType": "address",
          "name": "_spender",
          "type": "address"
        },
        {
          "indexed": false,
          "internalType": "uint256",
          "name": "_value",
          "type": "uint256"
        }
      ],
      "name": "Approval",
      "type": "event"
    },
    {
      "anonymous": false,
      "inputs": [
        {
          "indexed": false,
          "internalType": "uint256",
          "name": "amount",
          "type": "uint256"
        }
      ],
      "name": "Burned",
      "type": "event"
    },
    {
      "anonymous": false,
      "inputs": [
        {
          "indexed": true,
          "internalType": "address",
          "name": "_candidate",
          "type": "address"
        }
      ],
      "name": "CandidateAdded",
      "type": "event"
    },
    {
      "anonymous": false,
      "inputs": [
        {
          "indexed": false,
          "internalType": "address",
          "name": "sender",
          "type": "address"
        },
        {
          "indexed": false,
          "internalType": "uint256",
          "name": "value",
          "type": "uint256"
        }
      ],
      "name": "Received",
      "type": "event"
    },
    {
      "anonymous": false,
      "inputs": [
        {
          "indexed": true,
          "internalType": "address",
          "name": "_from",
          "type": "address"
        },
        {
          "indexed": true,
          "internalType": "address",
          "name": "_to",
          "type": "address"
        },
        {
          "indexed": false,
          "internalType": "uint256",
          "name": "_value",
          "type": "uint256"
        }
      ],
      "name": "Transfer",
      "type": "event"
    },
    {
      "anonymous": false,
      "inputs": [
        {
          "indexed": true,
          "internalType": "address",
          "name": "_candidate",
          "type": "address"
        },
        {
          "indexed": false,
          "internalType": "uint256",
          "name": "_numberOfVotes",
          "type": "uint256"
        }
      ],
      "name": "VoteHappened",
      "type": "event"
    },
    {
      "inputs": [
        {
          "internalType": "address",
          "name": "",
          "type": "address"
        },
        {
          "internalType": "address",
          "name": "",
          "type": "address"
        }
      ],
      "name": "allowance",
      "outputs": [
        {
          "internalType": "uint256",
          "name": "",
          "type": "uint256"
        }
      ],
      "stateMutability": "view",
      "type": "function"
    },
    {
      "inputs": [
        {
          "internalType": "address",
          "name": "",
          "type": "address"
        }
      ],
      "name": "balanceOf",
      "outputs": [
        {
          "internalType": "uint256",
          "name": "",
          "type": "uint256"
        }
      ],
      "stateMutability": "view",
      "type": "function"
    },
    {
      "inputs": [],
      "name": "burnStartTime",
      "outputs": [
        {
          "internalType": "uint256",
          "name": "",
          "type": "uint256"
        }
      ],
      "stateMutability": "view",
      "type": "function"
    },
    {
      "inputs": [],
      "name": "decimals",
      "outputs": [
        {
          "internalType": "uint8",
          "name": "",
          "type": "uint8"
        }
      ],
      "stateMutability": "view",
      "type": "function"
    },
    {
      "inputs": [
        {
          "internalType": "address",
          "name": "",
          "type": "address"
        }
      ],
      "name": "eligibleOwners",
      "outputs": [
        {
          "internalType": "bool",
          "name": "",
          "type": "bool"
        }
      ],
      "stateMutability": "view",
      "type": "function"
    },
    {
      "inputs": [],
      "name": "feePerTransaction",
      "outputs": [
        {
          "internalType": "uint256",
          "name": "",
          "type": "uint256"
        }
      ],
      "stateMutability": "view",
      "type": "function"
    },
    {
      "inputs": [],
      "name": "name",
      "outputs": [
        {
          "internalType": "string",
          "name": "",
          "type": "string"
        }
      ],
      "stateMutability": "view",
      "type": "function"
    },
    {
      "inputs": [
        {
          "internalType": "uint256",
          "name": "",
          "type": "uint256"
        }
      ],
      "name": "owners",
      "outputs": [
        {
          "internalType": "address",
          "name": "",
          "type": "address"
        }
      ],
      "stateMutability": "view",
      "type": "function"
    },
    {
      "inputs": [],
      "name": "symbol",
      "outputs": [
        {
          "internalType": "string",
          "name": "",
          "type": "string"
        }
      ],
      "stateMutability": "view",
      "type": "function"
    },
    {
      "inputs": [],
      "name": "totalReward",
      "outputs": [
        {
          "internalType": "uint256",
          "name": "",
          "type": "uint256"
        }
      ],
      "stateMutability": "view",
      "type": "function"
    },
    {
      "inputs": [],
      "name": "totalSupply",
      "outputs": [
        {
          "internalType": "uint256",
          "name": "",
          "type": "uint256"
        }
      ],
      "stateMutability": "view",
      "type": "function"
    },
    {
      "inputs": [],
      "name": "voteDuration",
      "outputs": [
        {
          "internalType": "uint256",
          "name": "",
          "type": "uint256"
        }
      ],
      "stateMutability": "view",
      "type": "function"
    },
    {
      "stateMutability": "payable",
      "type": "receive"
    },
    {
      "inputs": [
        {
          "internalType": "address payable",
          "name": "_address",
          "type": "address"
        }
      ],
      "name": "withdrawReward",
      "outputs": [],
      "stateMutability": "nonpayable",
      "type": "function"
    },
    {
      "inputs": [
        {
          "internalType": "address",
          "name": "_address",
          "type": "address"
        }
      ],
      "name": "getEthBalance",
      "outputs": [
        {
          "internalType": "uint256",
          "name": "",
          "type": "uint256"
        }
      ],
      "stateMutability": "view",
      "type": "function"
    },
    {
      "inputs": [
        {
          "internalType": "address",
          "name": "_candidateAddress",
          "type": "address"
        }
      ],
      "name": "addCandidate",
      "outputs": [],
      "stateMutability": "nonpayable",
      "type": "function"
    },
    {
      "inputs": [
        {
          "internalType": "address",
          "name": "_candidateAddress",
          "type": "address"
        },
        {
          "internalType": "bool",
          "name": "_choice",
          "type": "bool"
        }
      ],
      "name": "vote",
      "outputs": [],
      "stateMutability": "nonpayable",
      "type": "function"
    },
    {
      "inputs": [
        {
          "internalType": "address",
          "name": "_candidateAddress",
          "type": "address"
        }
      ],
      "name": "endVote",
      "outputs": [
        {
          "internalType": "bool",
          "name": "decision",
          "type": "bool"
        }
      ],
      "stateMutability": "nonpayable",
      "type": "function"
    },
    {
      "inputs": [
        {
          "internalType": "address",
          "name": "_to",
          "type": "address"
        },
        {
          "internalType": "uint256",
          "name": "_value",
          "type": "uint256"
        }
      ],
      "name": "transfer",
      "outputs": [
        {
          "internalType": "bool",
          "name": "success",
          "type": "bool"
        }
      ],
      "stateMutability": "payable",
      "type": "function"
    },
    {
      "inputs": [
        {
          "internalType": "address",
          "name": "_spender",
          "type": "address"
        },
        {
          "internalType": "uint256",
          "name": "_value",
          "type": "uint256"
        }
      ],
      "name": "approve",
      "outputs": [
        {
          "internalType": "bool",
          "name": "success",
          "type": "bool"
        }
      ],
      "stateMutability": "nonpayable",
      "type": "function"
    },
    {
      "inputs": [
        {
          "internalType": "address",
          "name": "_from",
          "type": "address"
        },
        {
          "internalType": "address",
          "name": "_to",
          "type": "address"
        },
        {
          "internalType": "uint256",
          "name": "_value",
          "type": "uint256"
        }
      ],
      "name": "transferFrom",
      "outputs": [
        {
          "internalType": "bool",
          "name": "",
          "type": "bool"
        }
      ],
      "stateMutability": "nonpayable",
      "type": "function"
    },
    {
      "inputs": [
        {
          "internalType": "uint256",
          "name": "_value",
          "type": "uint256"
        }
      ],
      "name": "burn",
      "outputs": [
        {
          "internalType": "bool",
          "name": "success",
          "type": "bool"
        }
      ],
      "stateMutability": "nonpayable",
      "type": "function"
    }
  ],
  "bytecode": "0x60806040526040518060400160405280601081526020017f56616c546f6b656e4275726e46756c6c000000000000000000000000000000008152506000908051906020019062000051929190620008a0565b506040518060400160405280600581526020017f564c544246000000000000000000000000000000000000000000000000000000815250600190805190602001906200009f929190620008a0565b5060016003556000600460146101000a81548160ff021916908360ff16021790555062015180420160075542600a55348015620000db57600080fd5b50604051620038f3380380620038f3833981810160405260208110156200010157600080fd5b810190808051906020019092919050505033600460006101000a81548173ffffffffffffffffffffffffffffffffffffffff021916908373ffffffffffffffffffffffffffffffffffffffff1602179055506040518060600160405280600460009054906101000a900473ffffffffffffffffffffffffffffffffffffffff1673ffffffffffffffffffffffffffffffffffffffff1673ffffffffffffffffffffffffffffffffffffffff16815260200173286845086e2feeb4db3bf67ec8a97d6dcefc451373ffffffffffffffffffffffffffffffffffffffff1673ffffffffffffffffffffffffffffffffffffffff16815260200172653f299ed322272a0c5e5bde810a38b7c97c1573ffffffffffffffffffffffffffffffffffffffff1673ffffffffffffffffffffffffffffffffffffffff1681525060059060036200024d92919062000927565b5060006200026f600580549050836200055560201b62002bd21790919060201c565b905060006200029260058054905083620005a760201b62002c1c1790919060201c565b905060008090505b600580549050811015620004a35760016013600060058481548110620002bc57fe5b9060005260206000200160009054906101000a900473ffffffffffffffffffffffffffffffffffffffff1673ffffffffffffffffffffffffffffffffffffffff1673ffffffffffffffffffffffffffffffffffffffff16815260200190815260200160002060006101000a81548160ff0219169083151502179055508260106000600584815481106200034b57fe5b9060005260206000200160009054906101000a900473ffffffffffffffffffffffffffffffffffffffff1673ffffffffffffffffffffffffffffffffffffffff1673ffffffffffffffffffffffffffffffffffffffff16815260200190815260200160002081905550600c73__IterableMapping_______________________63bc2b405c909160058481548110620003e057fe5b9060005260206000200160009054906101000a900473ffffffffffffffffffffffffffffffffffffffff1660006040518463ffffffff1660e01b8152600401808481526020018373ffffffffffffffffffffffffffffffffffffffff1673ffffffffffffffffffffffffffffffffffffffff168152602001828152602001935050505060006040518083038186803b1580156200047c57600080fd5b505af415801562000491573d6000803e3d6000fd5b5050505080806001019150506200029a565b50620004be8184620005f960201b62002a401790919060201c565b600281905550600460009054906101000a900473ffffffffffffffffffffffffffffffffffffffff1673ffffffffffffffffffffffffffffffffffffffff16600073ffffffffffffffffffffffffffffffffffffffff167fddf252ad1be2c89b69c2b068fc378daa952ba7f163c4a11628f55a4df523b3ef856040518082815260200191505060405180910390a350505062000a24565b60006200059f83836040518060400160405280601a81526020017f536166654d6174683a206469766973696f6e206279207a65726f0000000000008152506200064b60201b60201c565b905092915050565b6000620005f183836040518060400160405280601881526020017f536166654d6174683a206d6f64756c6f206279207a65726f00000000000000008152506200071660201b60201c565b905092915050565b60006200064383836040518060400160405280601e81526020017f536166654d6174683a207375627472616374696f6e206f766572666c6f770000815250620007dc60201b60201c565b905092915050565b60008083118290620006fb576040517f08c379a00000000000000000000000000000000000000000000000000000000081526004018080602001828103825283818151815260200191508051906020019080838360005b83811015620006bf578082015181840152602081019050620006a2565b50505050905090810190601f168015620006ed5780820380516001836020036101000a031916815260200191505b509250505060405180910390fd5b5060008385816200070857fe5b049050809150509392505050565b6000808314158290620007c7576040517f08c379a00000000000000000000000000000000000000000000000000000000081526004018080602001828103825283818151815260200191508051906020019080838360005b838110156200078b5780820151818401526020810190506200076e565b50505050905090810190601f168015620007b95780820380516001836020036101000a031916815260200191505b509250505060405180910390fd5b50828481620007d257fe5b0690509392505050565b60008383111582906200088d576040517f08c379a00000000000000000000000000000000000000000000000000000000081526004018080602001828103825283818151815260200191508051906020019080838360005b838110156200085157808201518184015260208101905062000834565b50505050905090810190601f1680156200087f5780820380516001836020036101000a031916815260200191505b509250505060405180910390fd5b5060008385039050809150509392505050565b828054600181600116156101000203166002900490600052602060002090601f016020900481019282601f10620008e357805160ff191683800117855562000914565b8280016001018555821562000914579182015b8281111562000913578251825591602001919060010190620008f6565b5b509050620009239190620009b6565b5090565b828054828255906000526020600020908101928215620009a3579160200282015b82811115620009a25782518260006101000a81548173ffffffffffffffffffffffffffffffffffffffff021916908373ffffffffffffffffffffffffffffffffffffffff1602179055509160200191906001019062000948565b5b509050620009b29190620009de565b5090565b620009db91905b80821115620009d7576000816000905550600101620009bd565b5090565b90565b62000a2191905b8082111562000a1d57600081816101000a81549073ffffffffffffffffffffffffffffffffffffffff021916905550600101620009e5565b5090565b90565b612ebf8062000a346000396000f3fe60806040526004361061012e5760003560e01c8063635882eb116100ab57806395d89b411161006f57806395d89b41146106ad578063a9059cbb1461073d578063b86e321c146107a3578063bd041c4d146107f4578063cb07b6e214610851578063dd62ed3e146108ba576101b8565b8063635882eb1461055e57806364a8e526146105c757806370a08231146105f2578063750142e6146106575780637e279efe14610682576101b8565b8063313ce567116100f2578063313ce567146103f95780633acd75f81461042a57806342966c681461047b5780634d2301cc146104ce5780635636449914610533576101b8565b8063025e7c27146101bd57806306fdde0314610238578063095ea7b3146102c857806318160ddd1461033b57806323b872dd14610366576101b8565b366101b8573460086000828254019250508190555061014b61093f565b7f88a5966d370b9919b20f3e2c13ff65706f196a4e32cc2c12bf57088f885258743334604051808373ffffffffffffffffffffffffffffffffffffffff1673ffffffffffffffffffffffffffffffffffffffff1681526020018281526020019250505060405180910390a1005b600080fd5b3480156101c957600080fd5b506101f6600480360360208110156101e057600080fd5b8101908080359060200190929190505050610c8f565b604051808273ffffffffffffffffffffffffffffffffffffffff1673ffffffffffffffffffffffffffffffffffffffff16815260200191505060405180910390f35b34801561024457600080fd5b5061024d610ccb565b6040518080602001828103825283818151815260200191508051906020019080838360005b8381101561028d578082015181840152602081019050610272565b50505050905090810190601f1680156102ba5780820380516001836020036101000a031916815260200191505b509250505060405180910390f35b3480156102d457600080fd5b50610321600480360360408110156102eb57600080fd5b81019080803573ffffffffffffffffffffffffffffffffffffffff16906020019092919080359060200190929190505050610d69565b604051808215151515815260200191505060405180910390f35b34801561034757600080fd5b50610350610e5b565b6040518082815260200191505060405180910390f35b34801561037257600080fd5b506103df6004803603606081101561038957600080fd5b81019080803573ffffffffffffffffffffffffffffffffffffffff169060200190929190803573ffffffffffffffffffffffffffffffffffffffff16906020019092919080359060200190929190505050610e61565b604051808215151515815260200191505060405180910390f35b34801561040557600080fd5b5061040e6112b3565b604051808260ff1660ff16815260200191505060405180910390f35b34801561043657600080fd5b506104796004803603602081101561044d57600080fd5b81019080803573ffffffffffffffffffffffffffffffffffffffff1690602001909291905050506112c6565b005b34801561048757600080fd5b506104b46004803603602081101561049e57600080fd5b81019080803590602001909291905050506117a4565b604051808215151515815260200191505060405180910390f35b3480156104da57600080fd5b5061051d600480360360208110156104f157600080fd5b81019080803573ffffffffffffffffffffffffffffffffffffffff169060200190929190505050611a21565b6040518082815260200191505060405180910390f35b34801561053f57600080fd5b50610548611aeb565b6040518082815260200191505060405180910390f35b34801561056a57600080fd5b506105ad6004803603602081101561058157600080fd5b81019080803573ffffffffffffffffffffffffffffffffffffffff169060200190929190505050611af1565b604051808215151515815260200191505060405180910390f35b3480156105d357600080fd5b506105dc611b11565b6040518082815260200191505060405180910390f35b3480156105fe57600080fd5b506106416004803603602081101561061557600080fd5b81019080803573ffffffffffffffffffffffffffffffffffffffff169060200190929190505050611b17565b6040518082815260200191505060405180910390f35b34801561066357600080fd5b5061066c611b2f565b6040518082815260200191505060405180910390f35b34801561068e57600080fd5b50610697611b35565b6040518082815260200191505060405180910390f35b3480156106b957600080fd5b506106c2611b3b565b6040518080602001828103825283818151815260200191508051906020019080838360005b838110156107025780820151818401526020810190506106e7565b50505050905090810190601f16801561072f5780820380516001836020036101000a031916815260200191505b509250505060405180910390f35b6107896004803603604081101561075357600080fd5b81019080803573ffffffffffffffffffffffffffffffffffffffff16906020019092919080359060200190929190505050611bd9565b604051808215151515815260200191505060405180910390f35b3480156107af57600080fd5b506107f2600480360360208110156107c657600080fd5b81019080803573ffffffffffffffffffffffffffffffffffffffff169060200190929190505050611f18565b005b34801561080057600080fd5b5061084f6004803603604081101561081757600080fd5b81019080803573ffffffffffffffffffffffffffffffffffffffff16906020019092919080351515906020019092919050505061214d565b005b34801561085d57600080fd5b506108a06004803603602081101561087457600080fd5b81019080803573ffffffffffffffffffffffffffffffffffffffff16906020019092919050505061257a565b604051808215151515815260200191505060405180910390f35b3480156108c657600080fd5b50610929600480360360408110156108dd57600080fd5b81019080803573ffffffffffffffffffffffffffffffffffffffff169060200190929190803573ffffffffffffffffffffffffffffffffffffffff169060200190929190505050612a1b565b6040518082815260200191505060405180910390f35b60011515601360003373ffffffffffffffffffffffffffffffffffffffff1673ffffffffffffffffffffffffffffffffffffffff16815260200190815260200160002060009054906101000a900460ff16151514610a05576040517f08c379a00000000000000000000000000000000000000000000000000000000081526004018080602001828103825260148152602001807f596f7520617265206e6f7420616e206f776e657200000000000000000000000081525060200191505060405180910390fd5b60008090505b600c73__IterableMapping_______________________63deb3d89690916040518263ffffffff1660e01b81526004018082815260200191505060206040518083038186803b158015610a5d57600080fd5b505af4158015610a71573d6000803e3d6000fd5b505050506040513d6020811015610a8757600080fd5b81019080805190602001909291905050508160ff161015610c845760025460106000600c73__IterableMapping_______________________63d1aa9e7e9091866040518363ffffffff1660e01b8152600401808381526020018260ff1681526020019250505060206040518083038186803b158015610b0657600080fd5b505af4158015610b1a573d6000803e3d6000fd5b505050506040513d6020811015610b3057600080fd5b810190808051906020019092919050505073ffffffffffffffffffffffffffffffffffffffff1673ffffffffffffffffffffffffffffffffffffffff168152602001908152602001600020546008540281610b8757fe5b04600b81905550600b54600c6001016000600c73__IterableMapping_______________________63d1aa9e7e9091866040518363ffffffff1660e01b8152600401808381526020018260ff1681526020019250505060206040518083038186803b158015610bf557600080fd5b505af4158015610c09573d6000803e3d6000fd5b505050506040513d6020811015610c1f57600080fd5b810190808051906020019092919050505073ffffffffffffffffffffffffffffffffffffffff1673ffffffffffffffffffffffffffffffffffffffff168152602001908152602001600020600082825401925050819055508080600101915050610a0b565b506000600881905550565b60058181548110610c9c57fe5b906000526020600020016000915054906101000a900473ffffffffffffffffffffffffffffffffffffffff1681565b60008054600181600116156101000203166002900480601f016020809104026020016040519081016040528092919081815260200182805460018160011615610100020316600290048015610d615780601f10610d3657610100808354040283529160200191610d61565b820191906000526020600020905b815481529060010190602001808311610d4457829003601f168201915b505050505081565b600081601160003373ffffffffffffffffffffffffffffffffffffffff1673ffffffffffffffffffffffffffffffffffffffff16815260200190815260200160002060008573ffffffffffffffffffffffffffffffffffffffff1673ffffffffffffffffffffffffffffffffffffffff168152602001908152602001600020819055508273ffffffffffffffffffffffffffffffffffffffff163373ffffffffffffffffffffffffffffffffffffffff167f8c5be1e5ebec7d5bd14f71427d1e84f3dd0314c0f7b2291e5b200ac8c7c3b925846040518082815260200191505060405180910390a36001905092915050565b60025481565b600081601060008673ffffffffffffffffffffffffffffffffffffffff1673ffffffffffffffffffffffffffffffffffffffff168152602001908152602001600020541015610f18576040517f08c379a00000000000000000000000000000000000000000000000000000000081526004018080602001828103825260148152602001807f696e73756666696369656e742062616c616e636500000000000000000000000081525060200191505060405180910390fd5b81601160008673ffffffffffffffffffffffffffffffffffffffff1673ffffffffffffffffffffffffffffffffffffffff16815260200190815260200160002060003373ffffffffffffffffffffffffffffffffffffffff1673ffffffffffffffffffffffffffffffffffffffff16815260200190815260200160002054101561100a576040517f08c379a00000000000000000000000000000000000000000000000000000000081526004018080602001828103825260128152602001807f616c6c6f77616e6365206578636565646564000000000000000000000000000081525060200191505060405180910390fd5b61105c82601060008773ffffffffffffffffffffffffffffffffffffffff1673ffffffffffffffffffffffffffffffffffffffff16815260200190815260200160002054612a4090919063ffffffff16565b601060008673ffffffffffffffffffffffffffffffffffffffff1673ffffffffffffffffffffffffffffffffffffffff168152602001908152602001600020819055506110f182601060008673ffffffffffffffffffffffffffffffffffffffff1673ffffffffffffffffffffffffffffffffffffffff16815260200190815260200160002054612a8a90919063ffffffff16565b601060008573ffffffffffffffffffffffffffffffffffffffff1673ffffffffffffffffffffffffffffffffffffffff168152602001908152602001600020819055506111c382601160008773ffffffffffffffffffffffffffffffffffffffff1673ffffffffffffffffffffffffffffffffffffffff16815260200190815260200160002060003373ffffffffffffffffffffffffffffffffffffffff1673ffffffffffffffffffffffffffffffffffffffff16815260200190815260200160002054612a4090919063ffffffff16565b601160008673ffffffffffffffffffffffffffffffffffffffff1673ffffffffffffffffffffffffffffffffffffffff16815260200190815260200160002060003373ffffffffffffffffffffffffffffffffffffffff1673ffffffffffffffffffffffffffffffffffffffff168152602001908152602001600020819055508273ffffffffffffffffffffffffffffffffffffffff168473ffffffffffffffffffffffffffffffffffffffff167fddf252ad1be2c89b69c2b068fc378daa952ba7f163c4a11628f55a4df523b3ef846040518082815260200191505060405180910390a3600190509392505050565b600460149054906101000a900460ff1681565b60011515601360003373ffffffffffffffffffffffffffffffffffffffff1673ffffffffffffffffffffffffffffffffffffffff16815260200190815260200160002060009054906101000a900460ff1615151461138c576040517f08c379a00000000000000000000000000000000000000000000000000000000081526004018080602001828103825260148152602001807f596f7520617265206e6f7420616e206f776e657200000000000000000000000081525060200191505060405180910390fd5b60001515601360008373ffffffffffffffffffffffffffffffffffffffff1673ffffffffffffffffffffffffffffffffffffffff16815260200190815260200160002060009054906101000a900460ff16151514611435576040517f08c379a0000000000000000000000000000000000000000000000000000000008152600401808060200182810382526034815260200180612e0f6034913960400191505060405180910390fd5b60001515601260008373ffffffffffffffffffffffffffffffffffffffff1673ffffffffffffffffffffffffffffffffffffffff16815260200190815260200160002060020160059054906101000a900460ff161515146114e1576040517f08c379a0000000000000000000000000000000000000000000000000000000008152600401808060200182810382526023815260200180612e676023913960400191505060405180910390fd5b33601260008373ffffffffffffffffffffffffffffffffffffffff1673ffffffffffffffffffffffffffffffffffffffff16815260200190815260200160002060000160006101000a81548173ffffffffffffffffffffffffffffffffffffffff021916908373ffffffffffffffffffffffffffffffffffffffff1602179055506001601260008373ffffffffffffffffffffffffffffffffffffffff1673ffffffffffffffffffffffffffffffffffffffff16815260200190815260200160002060010160003373ffffffffffffffffffffffffffffffffffffffff1673ffffffffffffffffffffffffffffffffffffffff16815260200190815260200160002060006101000a81548160ff021916908360ff1602179055506001601260008373ffffffffffffffffffffffffffffffffffffffff1673ffffffffffffffffffffffffffffffffffffffff16815260200190815260200160002060020160006101000a81548163ffffffff021916908363ffffffff160217905550601360008273ffffffffffffffffffffffffffffffffffffffff1673ffffffffffffffffffffffffffffffffffffffff16815260200190815260200160002060009054906101000a900460ff16601260008373ffffffffffffffffffffffffffffffffffffffff1673ffffffffffffffffffffffffffffffffffffffff16815260200190815260200160002060020160046101000a81548160ff0219169083151502179055506001601260008373ffffffffffffffffffffffffffffffffffffffff1673ffffffffffffffffffffffffffffffffffffffff16815260200190815260200160002060020160056101000a81548160ff0219169083151502179055508073ffffffffffffffffffffffffffffffffffffffff167faa38be308bdffe126c2b6be720070355eb22e0efc549ac39221b1ce71642ed4060405160405180910390a250565b600060011515601360003373ffffffffffffffffffffffffffffffffffffffff1673ffffffffffffffffffffffffffffffffffffffff16815260200190815260200160002060009054906101000a900460ff1615151461186c576040517f08c379a00000000000000000000000000000000000000000000000000000000081526004018080602001828103825260148152602001807f596f7520617265206e6f7420616e206f776e657200000000000000000000000081525060200191505060405180910390fd5b600754421115611a1b5781601060003373ffffffffffffffffffffffffffffffffffffffff1673ffffffffffffffffffffffffffffffffffffffff16815260200190815260200160002054101561192b576040517f08c379a00000000000000000000000000000000000000000000000000000000081526004018080602001828103825260148152602001807f62616c616e636520696e73756666696369656e7400000000000000000000000081525060200191505060405180910390fd5b61197d82601060003373ffffffffffffffffffffffffffffffffffffffff1673ffffffffffffffffffffffffffffffffffffffff16815260200190815260200160002054612a4090919063ffffffff16565b601060003373ffffffffffffffffffffffffffffffffffffffff1673ffffffffffffffffffffffffffffffffffffffff168152602001908152602001600020819055506119d582600254612a4090919063ffffffff16565b6002819055507fd83c63197e8e676d80ab0122beba9a9d20f3828839e9a1d6fe81d242e9cd7e6e826040518082815260200191505060405180910390a160019050611a1c565b5b919050565b6000600c73__IterableMapping_______________________63732a2ccf9091846040518363ffffffff1660e01b8152600401808381526020018273ffffffffffffffffffffffffffffffffffffffff1673ffffffffffffffffffffffffffffffffffffffff1681526020019250505060206040518083038186803b158015611aa957600080fd5b505af4158015611abd573d6000803e3d6000fd5b505050506040513d6020811015611ad357600080fd5b81019080805190602001909291905050509050919050565b60065481565b60136020528060005260406000206000915054906101000a900460ff1681565b60035481565b60106020528060005260406000206000915090505481565b60085481565b60075481565b60018054600181600116156101000203166002900480601f016020809104026020016040519081016040528092919081815260200182805460018160011615610100020316600290048015611bd15780601f10611ba657610100808354040283529160200191611bd1565b820191906000526020600020905b815481529060010190602001808311611bb457829003601f168201915b505050505081565b600081601060003373ffffffffffffffffffffffffffffffffffffffff1673ffffffffffffffffffffffffffffffffffffffff168152602001908152602001600020541015611c90576040517f08c379a000000000000000000000000000000000000000000000000000000000815260040180806020018281038252601e8152602001807f6572726f722c2062616c616e636520697320696e73756666696369656e74000081525060200191505060405180910390fd5b611ce282601060003373ffffffffffffffffffffffffffffffffffffffff1673ffffffffffffffffffffffffffffffffffffffff16815260200190815260200160002054612a4090919063ffffffff16565b601060003373ffffffffffffffffffffffffffffffffffffffff1673ffffffffffffffffffffffffffffffffffffffff16815260200190815260200160002081905550611d8b611d3d60035484612a4090919063ffffffff16565b601060008673ffffffffffffffffffffffffffffffffffffffff1673ffffffffffffffffffffffffffffffffffffffff16815260200190815260200160002054612a8a90919063ffffffff16565b601060008573ffffffffffffffffffffffffffffffffffffffff1673ffffffffffffffffffffffffffffffffffffffff16815260200190815260200160002081905550611e4460035460106000600460009054906101000a900473ffffffffffffffffffffffffffffffffffffffff1673ffffffffffffffffffffffffffffffffffffffff1673ffffffffffffffffffffffffffffffffffffffff16815260200190815260200160002054612a8a90919063ffffffff16565b60106000600460009054906101000a900473ffffffffffffffffffffffffffffffffffffffff1673ffffffffffffffffffffffffffffffffffffffff1673ffffffffffffffffffffffffffffffffffffffff168152602001908152602001600020819055508273ffffffffffffffffffffffffffffffffffffffff163373ffffffffffffffffffffffffffffffffffffffff167fddf252ad1be2c89b69c2b068fc378daa952ba7f163c4a11628f55a4df523b3ef846040518082815260200191505060405180910390a36001905092915050565b60011515601360003373ffffffffffffffffffffffffffffffffffffffff1673ffffffffffffffffffffffffffffffffffffffff16815260200190815260200160002060009054906101000a900460ff16151514611fde576040517f08c379a00000000000000000000000000000000000000000000000000000000081526004018080602001828103825260148152602001807f596f7520617265206e6f7420616e206f776e657200000000000000000000000081525060200191505060405180910390fd5b6000600c60010160008373ffffffffffffffffffffffffffffffffffffffff1673ffffffffffffffffffffffffffffffffffffffff1681526020019081526020016000205411612079576040517f08c379a0000000000000000000000000000000000000000000000000000000008152600401808060200182810382526021815260200180612dee6021913960400191505060405180910390fd5b8073ffffffffffffffffffffffffffffffffffffffff166108fc600c60010160008473ffffffffffffffffffffffffffffffffffffffff1673ffffffffffffffffffffffffffffffffffffffff168152602001908152602001600020549081150290604051600060405180830381858888f19350505050158015612101573d6000803e3d6000fd5b506000600c60010160008373ffffffffffffffffffffffffffffffffffffffff1673ffffffffffffffffffffffffffffffffffffffff1681526020019081526020016000208190555050565b60011515601360003373ffffffffffffffffffffffffffffffffffffffff1673ffffffffffffffffffffffffffffffffffffffff16815260200190815260200160002060009054906101000a900460ff16151514612213576040517f08c379a00000000000000000000000000000000000000000000000000000000081526004018080602001828103825260148152602001807f596f7520617265206e6f7420616e206f776e657200000000000000000000000081525060200191505060405180910390fd5b601260008373ffffffffffffffffffffffffffffffffffffffff1673ffffffffffffffffffffffffffffffffffffffff16815260200190815260200160002060020160059054906101000a900460ff166122b8576040517f08c379a0000000000000000000000000000000000000000000000000000000008152600401808060200182810382526024815260200180612e436024913960400191505060405180910390fd5b6000601260008473ffffffffffffffffffffffffffffffffffffffff1673ffffffffffffffffffffffffffffffffffffffff16815260200190815260200160002060010160003373ffffffffffffffffffffffffffffffffffffffff1673ffffffffffffffffffffffffffffffffffffffff16815260200190815260200160002060009054906101000a900460ff1660ff16146123bd576040517f08c379a00000000000000000000000000000000000000000000000000000000081526004018080602001828103825260178152602001807f596f75206861766520616c726561647920766f7465642100000000000000000081525060200191505060405180910390fd5b80156124dc576001601260008473ffffffffffffffffffffffffffffffffffffffff1673ffffffffffffffffffffffffffffffffffffffff16815260200190815260200160002060010160003373ffffffffffffffffffffffffffffffffffffffff1673ffffffffffffffffffffffffffffffffffffffff16815260200190815260200160002060006101000a81548160ff021916908360ff160217905550601260008373ffffffffffffffffffffffffffffffffffffffff1673ffffffffffffffffffffffffffffffffffffffff168152602001908152602001600020600201600081819054906101000a900463ffffffff168092919060010191906101000a81548163ffffffff021916908363ffffffff16021790555050612576565b6002601260008473ffffffffffffffffffffffffffffffffffffffff1673ffffffffffffffffffffffffffffffffffffffff16815260200190815260200160002060010160003373ffffffffffffffffffffffffffffffffffffffff1673ffffffffffffffffffffffffffffffffffffffff16815260200190815260200160002060006101000a81548160ff021916908360ff1602179055505b5050565b600060011515601360003373ffffffffffffffffffffffffffffffffffffffff1673ffffffffffffffffffffffffffffffffffffffff16815260200190815260200160002060009054906101000a900460ff16151514612642576040517f08c379a00000000000000000000000000000000000000000000000000000000081526004018080602001828103825260148152602001807f596f7520617265206e6f7420616e206f776e657200000000000000000000000081525060200191505060405180910390fd5b60026005805490508161265157fe5b04601260008473ffffffffffffffffffffffffffffffffffffffff1673ffffffffffffffffffffffffffffffffffffffff16815260200190815260200160002060020160009054906101000a900463ffffffff1663ffffffff1611156128c3576005829080600181540180825580915050600190039060005260206000200160009091909190916101000a81548173ffffffffffffffffffffffffffffffffffffffff021916908373ffffffffffffffffffffffffffffffffffffffff1602179055506001601360008473ffffffffffffffffffffffffffffffffffffffff1673ffffffffffffffffffffffffffffffffffffffff16815260200190815260200160002060006101000a81548160ff021916908315150217905550601260008373ffffffffffffffffffffffffffffffffffffffff1673ffffffffffffffffffffffffffffffffffffffff168152602001908152602001600020600080820160006101000a81549073ffffffffffffffffffffffffffffffffffffffff02191690556002820160006101000a81549063ffffffff02191690556002820160046101000a81549060ff02191690556002820160056101000a81549060ff021916905550508173ffffffffffffffffffffffffffffffffffffffff167f63c204601fad8f75b3722a8a81b870d8a8c806ab155ad60029ceebe142a56157601260008573ffffffffffffffffffffffffffffffffffffffff1673ffffffffffffffffffffffffffffffffffffffff16815260200190815260200160002060020160009054906101000a900463ffffffff16604051808263ffffffff16815260200191505060405180910390a260019050612a16565b601260008373ffffffffffffffffffffffffffffffffffffffff1673ffffffffffffffffffffffffffffffffffffffff168152602001908152602001600020600080820160006101000a81549073ffffffffffffffffffffffffffffffffffffffff02191690556002820160006101000a81549063ffffffff02191690556002820160046101000a81549060ff02191690556002820160056101000a81549060ff021916905550508173ffffffffffffffffffffffffffffffffffffffff167f63c204601fad8f75b3722a8a81b870d8a8c806ab155ad60029ceebe142a56157601260008573ffffffffffffffffffffffffffffffffffffffff1673ffffffffffffffffffffffffffffffffffffffff16815260200190815260200160002060020160009054906101000a900463ffffffff16604051808263ffffffff16815260200191505060405180910390a2600090505b919050565b6011602052816000526040600020602052806000526040600020600091509150505481565b6000612a8283836040518060400160405280601e81526020017f536166654d6174683a207375627472616374696f6e206f766572666c6f770000815250612b12565b905092915050565b600080828401905083811015612b08576040517f08c379a000000000000000000000000000000000000000000000000000000000815260040180806020018281038252601b8152602001807f536166654d6174683a206164646974696f6e206f766572666c6f77000000000081525060200191505060405180910390fd5b8091505092915050565b6000838311158290612bbf576040517f08c379a00000000000000000000000000000000000000000000000000000000081526004018080602001828103825283818151815260200191508051906020019080838360005b83811015612b84578082015181840152602081019050612b69565b50505050905090810190601f168015612bb15780820380516001836020036101000a031916815260200191505b509250505060405180910390fd5b5060008385039050809150509392505050565b6000612c1483836040518060400160405280601a81526020017f536166654d6174683a206469766973696f6e206279207a65726f000000000000815250612c66565b905092915050565b6000612c5e83836040518060400160405280601881526020017f536166654d6174683a206d6f64756c6f206279207a65726f0000000000000000815250612d2c565b905092915050565b60008083118290612d12576040517f08c379a00000000000000000000000000000000000000000000000000000000081526004018080602001828103825283818151815260200191508051906020019080838360005b83811015612cd7578082015181840152602081019050612cbc565b50505050905090810190601f168015612d045780820380516001836020036101000a031916815260200191505b509250505060405180910390fd5b506000838581612d1e57fe5b049050809150509392505050565b6000808314158290612dd9576040517f08c379a00000000000000000000000000000000000000000000000000000000081526004018080602001828103825283818151815260200191508051906020019080838360005b83811015612d9e578082015181840152602081019050612d83565b50505050905090810190601f168015612dcb5780820380516001836020036101000a031916815260200191505b509250505060405180910390fd5b50828481612de357fe5b069050939250505056fe596f7520646f206e6f7420686176652066756e647320746f207769746864726177596f752061726520616464696e67206120706572736f6e207468617420697320616c726561647920616d6f6e67206f776e657273746869732061646472657373206973206e6f7420616d6f6e672063616e646964617465735468697320706572736f6e20697320616c726561647920612063616e64696461746521a2646970667358221220c34bf408bd8d5c6535ef8fe6ad7fdf250bef10178682c479ab8beab4a24dd03764736f6c63430006000033",
  "source": "pragma solidity ^0.6.0;\r\n\r\n// import \"../node_modules/@openzeppelin/contracts/math/SafeMath.sol\";\r\n// import \"github.com/OpenZeppelin/openzeppelin-contracts/blob/master/contracts/math/SafeMath.sol\";\r\n// import \"@openzeppelin/contracts/math/SafeMath.sol\";\r\n// import './Voting.sol';\r\n\r\nlibrary SafeMath {\r\n    /**\r\n     * @dev Returns the addition of two unsigned integers, reverting on\r\n     * overflow.\r\n     *\r\n     * Counterpart to Solidity's `+` operator.\r\n     *\r\n     * Requirements:\r\n     *\r\n     * - Addition cannot overflow.\r\n     */\r\n    function add(uint256 a, uint256 b) internal pure returns (uint256) {\r\n        uint256 c = a + b;\r\n        require(c >= a, \"SafeMath: addition overflow\");\r\n\r\n        return c;\r\n    }\r\n\r\n    /**\r\n     * @dev Returns the subtraction of two unsigned integers, reverting on\r\n     * overflow (when the result is negative).\r\n     *\r\n     * Counterpart to Solidity's `-` operator.\r\n     *\r\n     * Requirements:\r\n     *\r\n     * - Subtraction cannot overflow.\r\n     */\r\n    function sub(uint256 a, uint256 b) internal pure returns (uint256) {\r\n        return sub(a, b, \"SafeMath: subtraction overflow\");\r\n    }\r\n\r\n    /**\r\n     * @dev Returns the subtraction of two unsigned integers, reverting with custom message on\r\n     * overflow (when the result is negative).\r\n     *\r\n     * Counterpart to Solidity's `-` operator.\r\n     *\r\n     * Requirements:\r\n     *\r\n     * - Subtraction cannot overflow.\r\n     */\r\n    function sub(uint256 a, uint256 b, string memory errorMessage) internal pure returns (uint256) {\r\n        require(b <= a, errorMessage);\r\n        uint256 c = a - b;\r\n\r\n        return c;\r\n    }\r\n\r\n    /**\r\n     * @dev Returns the multiplication of two unsigned integers, reverting on\r\n     * overflow.\r\n     *\r\n     * Counterpart to Solidity's `*` operator.\r\n     *\r\n     * Requirements:\r\n     *\r\n     * - Multiplication cannot overflow.\r\n     */\r\n    function mul(uint256 a, uint256 b) internal pure returns (uint256) {\r\n        // Gas optimization: this is cheaper than requiring 'a' not being zero, but the\r\n        // benefit is lost if 'b' is also tested.\r\n        // See: https://github.com/OpenZeppelin/openzeppelin-contracts/pull/522\r\n        if (a == 0) {\r\n            return 0;\r\n        }\r\n\r\n        uint256 c = a * b;\r\n        require(c / a == b, \"SafeMath: multiplication overflow\");\r\n\r\n        return c;\r\n    }\r\n\r\n    /**\r\n     * @dev Returns the integer division of two unsigned integers. Reverts on\r\n     * division by zero. The result is rounded towards zero.\r\n     *\r\n     * Counterpart to Solidity's `/` operator. Note: this function uses a\r\n     * `revert` opcode (which leaves remaining gas untouched) while Solidity\r\n     * uses an invalid opcode to revert (consuming all remaining gas).\r\n     *\r\n     * Requirements:\r\n     *\r\n     * - The divisor cannot be zero.\r\n     */\r\n    function div(uint256 a, uint256 b) internal pure returns (uint256) {\r\n        return div(a, b, \"SafeMath: division by zero\");\r\n    }\r\n\r\n    /**\r\n     * @dev Returns the integer division of two unsigned integers. Reverts with custom message on\r\n     * division by zero. The result is rounded towards zero.\r\n     *\r\n     * Counterpart to Solidity's `/` operator. Note: this function uses a\r\n     * `revert` opcode (which leaves remaining gas untouched) while Solidity\r\n     * uses an invalid opcode to revert (consuming all remaining gas).\r\n     *\r\n     * Requirements:\r\n     *\r\n     * - The divisor cannot be zero.\r\n     */\r\n    function div(uint256 a, uint256 b, string memory errorMessage) internal pure returns (uint256) {\r\n        require(b > 0, errorMessage);\r\n        uint256 c = a / b;\r\n        // assert(a == b * c + a % b); // There is no case in which this doesn't hold\r\n\r\n        return c;\r\n    }\r\n\r\n    /**\r\n     * @dev Returns the remainder of dividing two unsigned integers. (unsigned integer modulo),\r\n     * Reverts when dividing by zero.\r\n     *\r\n     * Counterpart to Solidity's `%` operator. This function uses a `revert`\r\n     * opcode (which leaves remaining gas untouched) while Solidity uses an\r\n     * invalid opcode to revert (consuming all remaining gas).\r\n     *\r\n     * Requirements:\r\n     *\r\n     * - The divisor cannot be zero.\r\n     */\r\n    function mod(uint256 a, uint256 b) internal pure returns (uint256) {\r\n        return mod(a, b, \"SafeMath: modulo by zero\");\r\n    }\r\n\r\n    /**\r\n     * @dev Returns the remainder of dividing two unsigned integers. (unsigned integer modulo),\r\n     * Reverts with custom message when dividing by zero.\r\n     *\r\n     * Counterpart to Solidity's `%` operator. This function uses a `revert`\r\n     * opcode (which leaves remaining gas untouched) while Solidity uses an\r\n     * invalid opcode to revert (consuming all remaining gas).\r\n     *\r\n     * Requirements:\r\n     *\r\n     * - The divisor cannot be zero.\r\n     */\r\n    function mod(uint256 a, uint256 b, string memory errorMessage) internal pure returns (uint256) {\r\n        require(b != 0, errorMessage);\r\n        return a % b;\r\n    }\r\n}\r\n\r\nlibrary IterableMapping {\r\n    // Iterable mapping from address to uint;\r\n    struct Map {\r\n        address[] keys;\r\n        mapping(address => uint) values;\r\n        mapping(address => uint) indexOf;\r\n        mapping(address => bool) inserted;\r\n\r\n    }\r\n\r\n    function get(Map storage map, address key) public view returns (uint) {\r\n        return map.values[key];\r\n    }\r\n\r\n    function getKeyAtIndex(Map storage map, uint index) public view returns (address) {\r\n        return map.keys[index];\r\n    }\r\n\r\n    function size(Map storage map) public view returns (uint) {\r\n        return map.keys.length;\r\n    }\r\n\r\n    function set(Map storage map, address key, uint val) public {\r\n        if (map.inserted[key]) {\r\n            map.values[key] = val;\r\n        } else {\r\n            map.inserted[key] = true;\r\n            map.values[key] = val;\r\n            map.indexOf[key] = map.keys.length;\r\n            map.keys.push(key);\r\n        }\r\n    }\r\n\r\n    function remove(Map storage map, address key) public {\r\n        if (!map.inserted[key]) {\r\n            return;\r\n        }\r\n\r\n        delete map.inserted[key];\r\n        delete map.values[key];\r\n\r\n        uint index = map.indexOf[key];\r\n        uint lastIndex = map.keys.length - 1;\r\n        address lastKey = map.keys[lastIndex];\r\n\r\n        map.indexOf[lastKey] = index;\r\n        delete map.indexOf[key];\r\n\r\n        map.keys[index] = lastKey;\r\n        map.keys.pop();\r\n    }\r\n}\r\n\r\ncontract MyToken {\r\n    using SafeMath for uint256;\r\n    using IterableMapping for IterableMapping.Map;\r\n\r\n    string public name = \"ValTokenBurnFull\";\r\n    string public symbol = \"VLTBF\";\r\n    uint256 public totalSupply;\r\n    uint256 public feePerTransaction = 1;\r\n    address private owner;\r\n    uint8 public decimals = 0;\r\n    address[] public owners;\r\n    uint256 public voteDuration;\r\n    //from this time on tokens may be burned +24 hours from 01.07.20\r\n    uint256 public burnStartTime = now + 24 hours;\r\n    uint256 public totalReward;\r\n    uint256 restReward;\r\n    uint256 lastDivideRewardTime = now;\r\n    uint ownerReward;\r\n    \r\n    event Transfer(address indexed _from, address indexed _to, uint256 _value);\r\n    event Approval(address indexed _owner, address indexed _spender, uint256 _value);\r\n    event Burned(uint256 amount);\r\n    event CandidateAdded(address indexed _candidate);\r\n    event VoteHappened(address indexed _candidate, uint256 _numberOfVotes);\r\n    event Received(address sender, uint256 value);\r\n    \r\n    struct CandidateData {\r\n        address proposal;\r\n        mapping(address => uint8) votes;\r\n        // do we need total votes?\r\n        uint32 positive;\r\n        //we can track only positive number;\r\n        // uint32 negative;\r\n        bool alreadyOwner;\r\n        bool isCandidate;\r\n    }\r\n    \r\n    IterableMapping.Map private map;\r\n    \r\n    mapping(address => uint256) public balanceOf;\r\n    mapping(address => mapping(address => uint256)) public allowance;\r\n    mapping(address => CandidateData) private candidates;\r\n    mapping(address => bool) public eligibleOwners;\r\n    \r\n\r\n    constructor(uint256 _initialSupply) public {\r\n        owner = msg.sender;\r\n        owners = [owner, 0x286845086E2FEEb4Db3BF67eC8a97d6dCefc4513, 0x00653f299ed322272A0c5e5BdE810A38b7c97C15];\r\n        uint256 tokenPerOwner = _initialSupply.div(owners.length);\r\n        uint256 tokensLeft = tokenPerOwner.mod(owners.length);\r\n        \r\n        for (uint i = 0; i < owners.length; i++ ){\r\n            eligibleOwners[owners[i]] = true; \r\n            balanceOf[owners[i]] = tokenPerOwner;\r\n            map.set(owners[i], 0);\r\n        }\r\n        \r\n        totalSupply = _initialSupply.sub(tokensLeft);\r\n        //allocate initial supply\r\n        emit Transfer(address(0), owner, _initialSupply);\r\n    }\r\n    //Reward distribution\r\n    function divideUpReward() private onlyOwners {\r\n        \r\n        \r\n        for (uint8 i = 0; i < map.size(); i++){\r\n            ownerReward = totalReward * balanceOf[map.getKeyAtIndex(i)] / totalSupply;\r\n            map.values[map.getKeyAtIndex(i)] += ownerReward;\r\n            \r\n            \r\n        }\r\n        totalReward = 0;\r\n\r\n    }\r\n\r\n    function withdrawReward(address payable _address) public onlyOwners {\r\n        require(map.values[_address] > 0, 'You do not have funds to withdraw');\r\n        _address.transfer(map.values[_address]);\r\n        map.values[_address] = 0;\r\n    }\r\n\r\n    function getEthBalance(address _address) public view returns(uint256) {\r\n        return map.get(_address);\r\n    }\r\n    \r\n    receive() external payable {\r\n        totalReward += msg.value;\r\n        divideUpReward();\r\n        emit Received(msg.sender, msg.value);\r\n    }\r\n    // function beforeBalanceChanges(address _affectedAddress) public {\r\n    //     require(holders[_affectedAddress].balanceUpdateTime <= lastDivideRewardTime, 'The reward cannot be divided right now');\r\n    //     holders[_affectedAddress].balanceUpdateTime = now;\r\n    //     holders[_affectedAddress].balance = balanceOf[_affectedAddress];\r\n    // }\r\n\r\n    // function reward()  public view onlyOwners returns(uint256) {\r\n    //     require(now >= lastDivideRewardTime, 'Please wait for another round of rewards');\r\n\r\n    //     uint256 balance;\r\n\r\n    //     if(holders[msg.sender].balanceUpdateTime <= lastDivideRewardTime) {\r\n    //         balance = balanceOf[msg.sender];\r\n    //     } else {\r\n    //         balance = holders[msg.sender].balance;\r\n    //     }\r\n    //     return totalReward * balance / totalSupply;\r\n    // }\r\n\r\n\r\n    //Voting functionality\r\n    \r\n    function addCandidate(address _candidateAddress) public onlyOwners {\r\n        require(eligibleOwners[_candidateAddress] == false, 'You are adding a person that is already among owners');\r\n        require(candidates[_candidateAddress].isCandidate == false, 'This person is already a candidate!');\r\n        candidates[_candidateAddress].proposal = msg.sender;\r\n        candidates[_candidateAddress].votes[msg.sender] = 1;\r\n        candidates[_candidateAddress].positive = 1;\r\n        candidates[_candidateAddress].alreadyOwner = eligibleOwners[_candidateAddress];\r\n        candidates[_candidateAddress].isCandidate = true;\r\n        emit CandidateAdded(_candidateAddress);\r\n    }\r\n    \r\n    function vote(address _candidateAddress, bool _choice) public onlyOwners {\r\n        require(candidates[_candidateAddress].isCandidate, 'this address is not among candidates');\r\n        require(candidates[_candidateAddress].votes[msg.sender] == 0, 'You have already voted!');\r\n        if(_choice){\r\n            candidates[_candidateAddress].votes[msg.sender] = 1;\r\n            candidates[_candidateAddress].positive++;\r\n        }else {\r\n            candidates[_candidateAddress].votes[msg.sender] = 2;\r\n        }\r\n    }\r\n    \r\n    function endVote(address _candidateAddress) public onlyOwners returns(bool decision) {\r\n        // require(candidates[_candidateAddress].totalVotes == owners.length, 'Not enoght votes to end the voting');\r\n        if(candidates[_candidateAddress].positive > owners.length / 2) {\r\n            owners.push(_candidateAddress);\r\n            eligibleOwners[_candidateAddress] = true;\r\n            delete candidates[_candidateAddress];\r\n            emit VoteHappened(_candidateAddress, candidates[_candidateAddress].positive);\r\n            return true;\r\n\r\n        }else {\r\n            delete candidates[_candidateAddress];\r\n            emit VoteHappened(_candidateAddress, candidates[_candidateAddress].positive);\r\n            return false;\r\n        }\r\n        \r\n    }\r\n    \r\n      //Transfer function\r\n    function transfer(address _to, uint256 _value)\r\n        public\r\n        payable\r\n        returns (bool success)\r\n    {\r\n        require(balanceOf[msg.sender] >= _value, 'error, balance is insufficient');\r\n        balanceOf[msg.sender] = balanceOf[msg.sender].sub(_value);\r\n        balanceOf[_to] = balanceOf[_to].add(_value.sub(feePerTransaction));\r\n        balanceOf[owner] = balanceOf[owner].add(feePerTransaction);\r\n        //transfer event\r\n        emit Transfer(msg.sender, _to, _value);\r\n        return true;\r\n    }\r\n\r\n    //modifier grands access to owners only\r\n    modifier onlyOwners() {\r\n        require(eligibleOwners[msg.sender] == true, \"You are not an owner\");\r\n        _;\r\n    }\r\n \r\n    //allowance implementation\r\n  \r\n\r\n    function approve(address _spender, uint256 _value) public returns (bool success) {\r\n      allowance[msg.sender][_spender] = _value;\r\n\r\n      //will trigger the approve event\r\n      emit Approval(msg.sender, _spender, _value);\r\n      return true;\r\n  }\r\n\r\n    function transferFrom(address _from, address _to, uint256 _value) public returns(bool) {\r\n      require(balanceOf[_from] >= _value, \"insufficient balance\");\r\n      require(allowance[_from][msg.sender] >= _value, \"allowance exceeded\");\r\n      balanceOf[_from] = balanceOf[_from].sub(_value);\r\n      balanceOf[_to] = balanceOf[_to].add(_value);\r\n      allowance[_from][msg.sender] = allowance[_from][msg.sender].sub(_value);\r\n      emit Transfer(_from, _to, _value);\r\n      return true;\r\n    }\r\n\r\n\r\n\r\n    //burning function\r\n  function burn(uint256 _value)  public onlyOwners returns (bool success)  {\r\n      //we restrict ourseleves to burn tokens after some perion of time.\r\n      if (now > burnStartTime) {\r\n          //checking that amount is less or equal to user's balance\r\n          require(balanceOf[msg.sender] >= _value, 'balance insufficient');\r\n          //decreasing the users balance by the amount\r\n          balanceOf[msg.sender] = balanceOf[msg.sender].sub(_value);\r\n            //decreasing the totalSupply by the amount\r\n          totalSupply = totalSupply.sub(_value);\r\n          emit Burned(_value);\r\n          return true;\r\n      }\r\n  }\r\n   \r\n   \r\n}\r\n\r\n\r\n\r\n\r\n\r\n\r\n\r\n\r\n\r\n\r\n",
  "sourcePath": "D:\\work\\projects\\my-token\\contracts\\VotingToken.sol",
  "compiler": {
    "name": "solc",
    "version": "0.6.0+commit.26b70077.Emscripten.clang"
  },
  "schemaVersion": "3.2.0",
  "updatedAt": "2020-07-07T13:50:00.348Z",
  "devdoc": {
    "methods": {}
  },
  "userdoc": {
    "methods": {}
  }
}