{
	"contractName": "myToken",
	"abi": [
		{
			"constant": true,
			"inputs": [],
			"name": "totalSuply",
			"outputs": [
				{
					"name": "",
					"type": "uint256"
				}
			],
			"payable": false,
			"stateMutability": "view",
			"type": "function"
		},
		{
			"inputs": [],
			"payable": false,
			"stateMutability": "nonpayable",
			"type": "constructor"
		}
	],
	"bytecode": "0x608060405234801561001057600080fd5b50620f4240600081905550609e806100296000396000f300608060405260043610603f576000357c0100000000000000000000000000000000000000000000000000000000900463ffffffff168063a2a96799146044575b600080fd5b348015604f57600080fd5b506056606c565b6040518082815260200191505060405180910390f35b600054815600a165627a7a723058209f4526dbf6fda44321debeb0b8bafcbdd844f312ccaa11967fb5607f06b62b0b0029",
	"source": "pragma solidity ^0.4.2;\r\n\r\ncontract myToken {\r\n    uint256 public totalSuply;\r\n\r\n    function myToken() public {\r\n        totalSuply = 1000000;\r\n    }\r\n}\r\n",
	"sourcePath": "D:\\work\\projects\\my-token\\contracts\\myToken.sol",
	"compiler": {
		"name": "solc",
		"version": "0.4.26+commit.4563c3fc.Emscripten.clang"
	},
	"schemaVersion": "3.2.0",
	"updatedAt": "2020-06-24T08:25:24.703Z",
	"networkType": "ethereum",
	"devdoc": {
		"methods": {}
	},
	"userdoc": {
		"methods": {}
	}
}