{
  "contractName": "VotingToken",
  "abi": [
    {
      "inputs": [],
      "stateMutability": "nonpayable",
      "type": "constructor"
    },
    {
      "anonymous": false,
      "inputs": [
        {
          "indexed": true,
          "internalType": "address",
          "name": "_owner",
          "type": "address"
        },
        {
          "indexed": true,
          "internalType": "address",
          "name": "_spender",
          "type": "address"
        },
        {
          "indexed": false,
          "internalType": "uint256",
          "name": "_value",
          "type": "uint256"
        }
      ],
      "name": "Approval",
      "type": "event"
    },
    {
      "anonymous": false,
      "inputs": [
        {
          "indexed": false,
          "internalType": "uint256",
          "name": "amount",
          "type": "uint256"
        }
      ],
      "name": "Burned",
      "type": "event"
    },
    {
      "anonymous": false,
      "inputs": [
        {
          "indexed": true,
          "internalType": "address",
          "name": "_candidate",
          "type": "address"
        }
      ],
      "name": "CandidateAdded",
      "type": "event"
    },
    {
      "anonymous": false,
      "inputs": [
        {
          "indexed": false,
          "internalType": "address",
          "name": "sender",
          "type": "address"
        },
        {
          "indexed": false,
          "internalType": "uint256",
          "name": "value",
          "type": "uint256"
        }
      ],
      "name": "Received",
      "type": "event"
    },
    {
      "anonymous": false,
      "inputs": [
        {
          "indexed": true,
          "internalType": "address",
          "name": "_from",
          "type": "address"
        },
        {
          "indexed": true,
          "internalType": "address",
          "name": "_to",
          "type": "address"
        },
        {
          "indexed": false,
          "internalType": "uint256",
          "name": "_value",
          "type": "uint256"
        }
      ],
      "name": "Transfer",
      "type": "event"
    },
    {
      "anonymous": false,
      "inputs": [
        {
          "indexed": true,
          "internalType": "address",
          "name": "_candidate",
          "type": "address"
        },
        {
          "indexed": false,
          "internalType": "uint256",
          "name": "_numberOfVotes",
          "type": "uint256"
        }
      ],
      "name": "VoteHappened",
      "type": "event"
    },
    {
      "inputs": [
        {
          "internalType": "address",
          "name": "",
          "type": "address"
        },
        {
          "internalType": "address",
          "name": "",
          "type": "address"
        }
      ],
      "name": "allowance",
      "outputs": [
        {
          "internalType": "uint256",
          "name": "",
          "type": "uint256"
        }
      ],
      "stateMutability": "view",
      "type": "function"
    },
    {
      "inputs": [
        {
          "internalType": "address",
          "name": "",
          "type": "address"
        }
      ],
      "name": "balanceOf",
      "outputs": [
        {
          "internalType": "uint256",
          "name": "",
          "type": "uint256"
        }
      ],
      "stateMutability": "view",
      "type": "function"
    },
    {
      "inputs": [],
      "name": "burnStartTime",
      "outputs": [
        {
          "internalType": "uint256",
          "name": "",
          "type": "uint256"
        }
      ],
      "stateMutability": "view",
      "type": "function"
    },
    {
      "inputs": [],
      "name": "decimals",
      "outputs": [
        {
          "internalType": "uint8",
          "name": "",
          "type": "uint8"
        }
      ],
      "stateMutability": "view",
      "type": "function"
    },
    {
      "inputs": [
        {
          "internalType": "address",
          "name": "",
          "type": "address"
        }
      ],
      "name": "eligibleOwners",
      "outputs": [
        {
          "internalType": "bool",
          "name": "",
          "type": "bool"
        }
      ],
      "stateMutability": "view",
      "type": "function"
    },
    {
      "inputs": [
        {
          "internalType": "uint256",
          "name": "_amount",
          "type": "uint256"
        }
      ],
      "name": "emitAndShareTokens",
      "outputs": [],
      "stateMutability": "nonpayable",
      "type": "function"
    },
    {
      "inputs": [],
      "name": "feePerTransaction",
      "outputs": [
        {
          "internalType": "uint256",
          "name": "",
          "type": "uint256"
        }
      ],
      "stateMutability": "view",
      "type": "function"
    },
    {
      "inputs": [],
      "name": "name",
      "outputs": [
        {
          "internalType": "string",
          "name": "",
          "type": "string"
        }
      ],
      "stateMutability": "view",
      "type": "function"
    },
    {
      "inputs": [],
      "name": "owner",
      "outputs": [
        {
          "internalType": "address",
          "name": "",
          "type": "address"
        }
      ],
      "stateMutability": "view",
      "type": "function"
    },
    {
      "inputs": [
        {
          "internalType": "uint256",
          "name": "",
          "type": "uint256"
        }
      ],
      "name": "owners",
      "outputs": [
        {
          "internalType": "address",
          "name": "",
          "type": "address"
        }
      ],
      "stateMutability": "view",
      "type": "function"
    },
    {
      "inputs": [],
      "name": "symbol",
      "outputs": [
        {
          "internalType": "string",
          "name": "",
          "type": "string"
        }
      ],
      "stateMutability": "view",
      "type": "function"
    },
    {
      "inputs": [],
      "name": "totalReward",
      "outputs": [
        {
          "internalType": "uint256",
          "name": "",
          "type": "uint256"
        }
      ],
      "stateMutability": "view",
      "type": "function"
    },
    {
      "inputs": [],
      "name": "totalTokenSupply",
      "outputs": [
        {
          "internalType": "uint256",
          "name": "",
          "type": "uint256"
        }
      ],
      "stateMutability": "view",
      "type": "function"
    },
    {
      "inputs": [],
      "name": "voteDuration",
      "outputs": [
        {
          "internalType": "uint256",
          "name": "",
          "type": "uint256"
        }
      ],
      "stateMutability": "view",
      "type": "function"
    },
    {
      "stateMutability": "payable",
      "type": "receive"
    },
    {
      "inputs": [],
      "name": "withdrawReward",
      "outputs": [],
      "stateMutability": "nonpayable",
      "type": "function"
    },
    {
      "inputs": [
        {
          "internalType": "address",
          "name": "_address",
          "type": "address"
        }
      ],
      "name": "getEthBalance",
      "outputs": [
        {
          "internalType": "uint256",
          "name": "",
          "type": "uint256"
        }
      ],
      "stateMutability": "view",
      "type": "function"
    },
    {
      "inputs": [
        {
          "internalType": "address",
          "name": "_candidateAddress",
          "type": "address"
        }
      ],
      "name": "addCandidate",
      "outputs": [],
      "stateMutability": "nonpayable",
      "type": "function"
    },
    {
      "inputs": [
        {
          "internalType": "address",
          "name": "_candidateAddress",
          "type": "address"
        },
        {
          "internalType": "bool",
          "name": "_choice",
          "type": "bool"
        }
      ],
      "name": "vote",
      "outputs": [],
      "stateMutability": "nonpayable",
      "type": "function"
    },
    {
      "inputs": [
        {
          "internalType": "address",
          "name": "_candidateAddress",
          "type": "address"
        }
      ],
      "name": "endVote",
      "outputs": [
        {
          "internalType": "bool",
          "name": "decision",
          "type": "bool"
        }
      ],
      "stateMutability": "nonpayable",
      "type": "function"
    },
    {
      "inputs": [
        {
          "internalType": "address",
          "name": "_to",
          "type": "address"
        },
        {
          "internalType": "uint256",
          "name": "_value",
          "type": "uint256"
        }
      ],
      "name": "transfer",
      "outputs": [
        {
          "internalType": "bool",
          "name": "success",
          "type": "bool"
        }
      ],
      "stateMutability": "payable",
      "type": "function"
    },
    {
      "inputs": [
        {
          "internalType": "address",
          "name": "_spender",
          "type": "address"
        },
        {
          "internalType": "uint256",
          "name": "_value",
          "type": "uint256"
        }
      ],
      "name": "approve",
      "outputs": [
        {
          "internalType": "bool",
          "name": "success",
          "type": "bool"
        }
      ],
      "stateMutability": "nonpayable",
      "type": "function"
    },
    {
      "inputs": [
        {
          "internalType": "address",
          "name": "_from",
          "type": "address"
        },
        {
          "internalType": "address",
          "name": "_to",
          "type": "address"
        },
        {
          "internalType": "uint256",
          "name": "_value",
          "type": "uint256"
        }
      ],
      "name": "transferFrom",
      "outputs": [
        {
          "internalType": "bool",
          "name": "",
          "type": "bool"
        }
      ],
      "stateMutability": "nonpayable",
      "type": "function"
    },
    {
      "inputs": [
        {
          "internalType": "uint256",
          "name": "_value",
          "type": "uint256"
        }
      ],
      "name": "burn",
      "outputs": [
        {
          "internalType": "bool",
          "name": "success",
          "type": "bool"
        }
      ],
      "stateMutability": "nonpayable",
      "type": "function"
    }
  ],
  "bytecode": "0x60806040526040518060400160405280601081526020017f56616c546f6b656e4275726e46756c6c00000000000000000000000000000000815250600490805190602001906200005192919062000b2b565b506040518060400160405280600581526020017f564c544246000000000000000000000000000000000000000000000000000000815250600590805190602001906200009f92919062000b2b565b5060016006556000600760006101000a81548160ff021916908360ff16021790555062015180420160095542600c55348015620000db57600080fd5b506103e8336000806101000a81548173ffffffffffffffffffffffffffffffffffffffff021916908373ffffffffffffffffffffffffffffffffffffffff16021790555060405180604001604052806000809054906101000a900473ffffffffffffffffffffffffffffffffffffffff1673ffffffffffffffffffffffffffffffffffffffff1673ffffffffffffffffffffffffffffffffffffffff16815260200173b1c2933166cc51d77872a36228a2362ba1d9707773ffffffffffffffffffffffffffffffffffffffff1673ffffffffffffffffffffffffffffffffffffffff168152506001906002620001d392919062000bb2565b50620001e581620003c760201b60201c565b8060028190555050336000806101000a81548173ffffffffffffffffffffffffffffffffffffffff021916908373ffffffffffffffffffffffffffffffffffffffff16021790555060008090505b600180549050811015620003c057600160146000600184815481106200025557fe5b9060005260206000200160009054906101000a900473ffffffffffffffffffffffffffffffffffffffff1673ffffffffffffffffffffffffffffffffffffffff1673ffffffffffffffffffffffffffffffffffffffff16815260200190815260200160002060006101000a81548160ff021916908315150217905550600e73__IterableMapping_______________________63bc2b405c909160018481548110620002fd57fe5b9060005260206000200160009054906101000a900473ffffffffffffffffffffffffffffffffffffffff1660006040518463ffffffff1660e01b8152600401808481526020018373ffffffffffffffffffffffffffffffffffffffff1673ffffffffffffffffffffffffffffffffffffffff168152602001828152602001935050505060006040518083038186803b1580156200039957600080fd5b505af4158015620003ae573d6000803e3d6000fd5b50505050808060010191505062000233565b5062000caf565b600081116200043e576040517f08c379a00000000000000000000000000000000000000000000000000000000081526004018080602001828103825260208152602001807f596f752063616e6e6f7420656e746572206e656761746976652076616c75657381525060200191505060405180910390fd5b6000809054906101000a900473ffffffffffffffffffffffffffffffffffffffff1673ffffffffffffffffffffffffffffffffffffffff163373ffffffffffffffffffffffffffffffffffffffff1614620004e5576040517f08c379a000000000000000000000000000000000000000000000000000000000815260040180806020018281038252602781526020018062003f936027913960400191505060405180910390fd5b600062000506600180549050836200075760201b62002f001790919060201c565b905060006200052960018054905083620007a960201b62002f4a1790919060201c565b9050600080600090505b600180549050811015620006f957620005d28460036000600185815481106200055857fe5b9060005260206000200160009054906101000a900473ffffffffffffffffffffffffffffffffffffffff1673ffffffffffffffffffffffffffffffffffffffff1673ffffffffffffffffffffffffffffffffffffffff16815260200190815260200160002054620007fb60201b62002e781790919060201c565b6003600060018481548110620005e457fe5b9060005260206000200160009054906101000a900473ffffffffffffffffffffffffffffffffffffffff1673ffffffffffffffffffffffffffffffffffffffff1673ffffffffffffffffffffffffffffffffffffffff16815260200190815260200160002081905550600181815481106200065b57fe5b9060005260206000200160009054906101000a900473ffffffffffffffffffffffffffffffffffffffff1673ffffffffffffffffffffffffffffffffffffffff16600073ffffffffffffffffffffffffffffffffffffffff167fddf252ad1be2c89b69c2b068fc378daa952ba7f163c4a11628f55a4df523b3ef866040518082815260200191505060405180910390a3808060010191505062000533565b506200072d6200071883866200088460201b62002e2e1790919060201c565b82620007fb60201b62002e781790919060201c565b90506200074b81600254620007fb60201b62002e781790919060201c565b60028190555050505050565b6000620007a183836040518060400160405280601a81526020017f536166654d6174683a206469766973696f6e206279207a65726f000000000000815250620008d660201b60201c565b905092915050565b6000620007f383836040518060400160405280601881526020017f536166654d6174683a206d6f64756c6f206279207a65726f0000000000000000815250620009a160201b60201c565b905092915050565b6000808284019050838110156200087a576040517f08c379a000000000000000000000000000000000000000000000000000000000815260040180806020018281038252601b8152602001807f536166654d6174683a206164646974696f6e206f766572666c6f77000000000081525060200191505060405180910390fd5b8091505092915050565b6000620008ce83836040518060400160405280601e81526020017f536166654d6174683a207375627472616374696f6e206f766572666c6f77000081525062000a6760201b60201c565b905092915050565b6000808311829062000986576040517f08c379a00000000000000000000000000000000000000000000000000000000081526004018080602001828103825283818151815260200191508051906020019080838360005b838110156200094a5780820151818401526020810190506200092d565b50505050905090810190601f168015620009785780820380516001836020036101000a031916815260200191505b509250505060405180910390fd5b5060008385816200099357fe5b049050809150509392505050565b600080831415829062000a52576040517f08c379a00000000000000000000000000000000000000000000000000000000081526004018080602001828103825283818151815260200191508051906020019080838360005b8381101562000a16578082015181840152602081019050620009f9565b50505050905090810190601f16801562000a445780820380516001836020036101000a031916815260200191505b509250505060405180910390fd5b5082848162000a5d57fe5b0690509392505050565b600083831115829062000b18576040517f08c379a00000000000000000000000000000000000000000000000000000000081526004018080602001828103825283818151815260200191508051906020019080838360005b8381101562000adc57808201518184015260208101905062000abf565b50505050905090810190601f16801562000b0a5780820380516001836020036101000a031916815260200191505b509250505060405180910390fd5b5060008385039050809150509392505050565b828054600181600116156101000203166002900490600052602060002090601f016020900481019282601f1062000b6e57805160ff191683800117855562000b9f565b8280016001018555821562000b9f579182015b8281111562000b9e57825182559160200191906001019062000b81565b5b50905062000bae919062000c41565b5090565b82805482825590600052602060002090810192821562000c2e579160200282015b8281111562000c2d5782518260006101000a81548173ffffffffffffffffffffffffffffffffffffffff021916908373ffffffffffffffffffffffffffffffffffffffff1602179055509160200191906001019062000bd3565b5b50905062000c3d919062000c69565b5090565b62000c6691905b8082111562000c6257600081600090555060010162000c48565b5090565b90565b62000cac91905b8082111562000ca857600081816101000a81549073ffffffffffffffffffffffffffffffffffffffff02191690555060010162000c70565b5090565b90565b6132d48062000cbf6000396000f3fe6080604052600436106101445760003560e01c806364a8e526116100b6578063a9059cbb1161006f578063a9059cbb146107aa578063b28628f614610810578063bd041c4d1461084b578063c885bc58146108a8578063cb07b6e2146108bf578063dd62ed3e14610928576101ce565b806364a8e526146105dd57806370a0823114610608578063750142e61461066d5780637e279efe146106985780638da5cb5b146106c357806395d89b411461071a576101ce565b8063313ce56711610108578063313ce5671461040f5780633acd75f81461044057806342966c68146104915780634d2301cc146104e45780635636449914610549578063635882eb14610574576101ce565b8063025e7c27146101d357806306fdde031461024e578063095ea7b3146102de5780631ca8b6cb1461035157806323b872dd1461037c576101ce565b366101ce5734600a600082825401925050819055506101616109ad565b7f88a5966d370b9919b20f3e2c13ff65706f196a4e32cc2c12bf57088f885258743334604051808373ffffffffffffffffffffffffffffffffffffffff1673ffffffffffffffffffffffffffffffffffffffff1681526020018281526020019250505060405180910390a1005b600080fd5b3480156101df57600080fd5b5061020c600480360360208110156101f657600080fd5b8101908080359060200190929190505050610cfd565b604051808273ffffffffffffffffffffffffffffffffffffffff1673ffffffffffffffffffffffffffffffffffffffff16815260200191505060405180910390f35b34801561025a57600080fd5b50610263610d39565b6040518080602001828103825283818151815260200191508051906020019080838360005b838110156102a3578082015181840152602081019050610288565b50505050905090810190601f1680156102d05780820380516001836020036101000a031916815260200191505b509250505060405180910390f35b3480156102ea57600080fd5b506103376004803603604081101561030157600080fd5b81019080803573ffffffffffffffffffffffffffffffffffffffff16906020019092919080359060200190929190505050610dd7565b604051808215151515815260200191505060405180910390f35b34801561035d57600080fd5b50610366610ec9565b6040518082815260200191505060405180910390f35b34801561038857600080fd5b506103f56004803603606081101561039f57600080fd5b81019080803573ffffffffffffffffffffffffffffffffffffffff169060200190929190803573ffffffffffffffffffffffffffffffffffffffff16906020019092919080359060200190929190505050610ecf565b604051808215151515815260200191505060405180910390f35b34801561041b57600080fd5b50610424611321565b604051808260ff1660ff16815260200191505060405180910390f35b34801561044c57600080fd5b5061048f6004803603602081101561046357600080fd5b81019080803573ffffffffffffffffffffffffffffffffffffffff169060200190929190505050611334565b005b34801561049d57600080fd5b506104ca600480360360208110156104b457600080fd5b8101908080359060200190929190505050611812565b604051808215151515815260200191505060405180910390f35b3480156104f057600080fd5b506105336004803603602081101561050757600080fd5b81019080803573ffffffffffffffffffffffffffffffffffffffff169060200190929190505050611a8f565b6040518082815260200191505060405180910390f35b34801561055557600080fd5b5061055e611b59565b6040518082815260200191505060405180910390f35b34801561058057600080fd5b506105c36004803603602081101561059757600080fd5b81019080803573ffffffffffffffffffffffffffffffffffffffff169060200190929190505050611b5f565b604051808215151515815260200191505060405180910390f35b3480156105e957600080fd5b506105f2611b7f565b6040518082815260200191505060405180910390f35b34801561061457600080fd5b506106576004803603602081101561062b57600080fd5b81019080803573ffffffffffffffffffffffffffffffffffffffff169060200190929190505050611b85565b6040518082815260200191505060405180910390f35b34801561067957600080fd5b50610682611b9d565b6040518082815260200191505060405180910390f35b3480156106a457600080fd5b506106ad611ba3565b6040518082815260200191505060405180910390f35b3480156106cf57600080fd5b506106d8611ba9565b604051808273ffffffffffffffffffffffffffffffffffffffff1673ffffffffffffffffffffffffffffffffffffffff16815260200191505060405180910390f35b34801561072657600080fd5b5061072f611bce565b6040518080602001828103825283818151815260200191508051906020019080838360005b8381101561076f578082015181840152602081019050610754565b50505050905090810190601f16801561079c5780820380516001836020036101000a031916815260200191505b509250505060405180910390f35b6107f6600480360360408110156107c057600080fd5b81019080803573ffffffffffffffffffffffffffffffffffffffff16906020019092919080359060200190929190505050611c6c565b604051808215151515815260200191505060405180910390f35b34801561081c57600080fd5b506108496004803603602081101561083357600080fd5b8101908080359060200190929190505050611fa9565b005b34801561085757600080fd5b506108a66004803603604081101561086e57600080fd5b81019080803573ffffffffffffffffffffffffffffffffffffffff169060200190929190803515159060200190929190505050612307565b005b3480156108b457600080fd5b506108bd612734565b005b3480156108cb57600080fd5b5061090e600480360360208110156108e257600080fd5b81019080803573ffffffffffffffffffffffffffffffffffffffff169060200190929190505050612968565b604051808215151515815260200191505060405180910390f35b34801561093457600080fd5b506109976004803603604081101561094b57600080fd5b81019080803573ffffffffffffffffffffffffffffffffffffffff169060200190929190803573ffffffffffffffffffffffffffffffffffffffff169060200190929190505050612e09565b6040518082815260200191505060405180910390f35b60011515601460003373ffffffffffffffffffffffffffffffffffffffff1673ffffffffffffffffffffffffffffffffffffffff16815260200190815260200160002060009054906101000a900460ff16151514610a73576040517f08c379a00000000000000000000000000000000000000000000000000000000081526004018080602001828103825260148152602001807f596f7520617265206e6f7420616e206f776e657200000000000000000000000081525060200191505060405180910390fd5b60008090505b600e73__IterableMapping_______________________63deb3d89690916040518263ffffffff1660e01b81526004018082815260200191505060206040518083038186803b158015610acb57600080fd5b505af4158015610adf573d6000803e3d6000fd5b505050506040513d6020811015610af557600080fd5b81019080805190602001909291905050508160ff161015610cf25760025460036000600e73__IterableMapping_______________________63d1aa9e7e9091866040518363ffffffff1660e01b8152600401808381526020018260ff1681526020019250505060206040518083038186803b158015610b7457600080fd5b505af4158015610b88573d6000803e3d6000fd5b505050506040513d6020811015610b9e57600080fd5b810190808051906020019092919050505073ffffffffffffffffffffffffffffffffffffffff1673ffffffffffffffffffffffffffffffffffffffff16815260200190815260200160002054600a540281610bf557fe5b04600d81905550600d54600e6001016000600e73__IterableMapping_______________________63d1aa9e7e9091866040518363ffffffff1660e01b8152600401808381526020018260ff1681526020019250505060206040518083038186803b158015610c6357600080fd5b505af4158015610c77573d6000803e3d6000fd5b505050506040513d6020811015610c8d57600080fd5b810190808051906020019092919050505073ffffffffffffffffffffffffffffffffffffffff1673ffffffffffffffffffffffffffffffffffffffff168152602001908152602001600020600082825401925050819055508080600101915050610a79565b506000600a81905550565b60018181548110610d0a57fe5b906000526020600020016000915054906101000a900473ffffffffffffffffffffffffffffffffffffffff1681565b60048054600181600116156101000203166002900480601f016020809104026020016040519081016040528092919081815260200182805460018160011615610100020316600290048015610dcf5780601f10610da457610100808354040283529160200191610dcf565b820191906000526020600020905b815481529060010190602001808311610db257829003601f168201915b505050505081565b600081601260003373ffffffffffffffffffffffffffffffffffffffff1673ffffffffffffffffffffffffffffffffffffffff16815260200190815260200160002060008573ffffffffffffffffffffffffffffffffffffffff1673ffffffffffffffffffffffffffffffffffffffff168152602001908152602001600020819055508273ffffffffffffffffffffffffffffffffffffffff163373ffffffffffffffffffffffffffffffffffffffff167f8c5be1e5ebec7d5bd14f71427d1e84f3dd0314c0f7b2291e5b200ac8c7c3b925846040518082815260200191505060405180910390a36001905092915050565b60025481565b600081600360008673ffffffffffffffffffffffffffffffffffffffff1673ffffffffffffffffffffffffffffffffffffffff168152602001908152602001600020541015610f86576040517f08c379a00000000000000000000000000000000000000000000000000000000081526004018080602001828103825260148152602001807f696e73756666696369656e742062616c616e636500000000000000000000000081525060200191505060405180910390fd5b81601260008673ffffffffffffffffffffffffffffffffffffffff1673ffffffffffffffffffffffffffffffffffffffff16815260200190815260200160002060003373ffffffffffffffffffffffffffffffffffffffff1673ffffffffffffffffffffffffffffffffffffffff168152602001908152602001600020541015611078576040517f08c379a00000000000000000000000000000000000000000000000000000000081526004018080602001828103825260128152602001807f616c6c6f77616e6365206578636565646564000000000000000000000000000081525060200191505060405180910390fd5b6110ca82600360008773ffffffffffffffffffffffffffffffffffffffff1673ffffffffffffffffffffffffffffffffffffffff16815260200190815260200160002054612e2e90919063ffffffff16565b600360008673ffffffffffffffffffffffffffffffffffffffff1673ffffffffffffffffffffffffffffffffffffffff1681526020019081526020016000208190555061115f82600360008673ffffffffffffffffffffffffffffffffffffffff1673ffffffffffffffffffffffffffffffffffffffff16815260200190815260200160002054612e7890919063ffffffff16565b600360008573ffffffffffffffffffffffffffffffffffffffff1673ffffffffffffffffffffffffffffffffffffffff1681526020019081526020016000208190555061123182601260008773ffffffffffffffffffffffffffffffffffffffff1673ffffffffffffffffffffffffffffffffffffffff16815260200190815260200160002060003373ffffffffffffffffffffffffffffffffffffffff1673ffffffffffffffffffffffffffffffffffffffff16815260200190815260200160002054612e2e90919063ffffffff16565b601260008673ffffffffffffffffffffffffffffffffffffffff1673ffffffffffffffffffffffffffffffffffffffff16815260200190815260200160002060003373ffffffffffffffffffffffffffffffffffffffff1673ffffffffffffffffffffffffffffffffffffffff168152602001908152602001600020819055508273ffffffffffffffffffffffffffffffffffffffff168473ffffffffffffffffffffffffffffffffffffffff167fddf252ad1be2c89b69c2b068fc378daa952ba7f163c4a11628f55a4df523b3ef846040518082815260200191505060405180910390a3600190509392505050565b600760009054906101000a900460ff1681565b60011515601460003373ffffffffffffffffffffffffffffffffffffffff1673ffffffffffffffffffffffffffffffffffffffff16815260200190815260200160002060009054906101000a900460ff161515146113fa576040517f08c379a00000000000000000000000000000000000000000000000000000000081526004018080602001828103825260148152602001807f596f7520617265206e6f7420616e206f776e657200000000000000000000000081525060200191505060405180910390fd5b60001515601460008373ffffffffffffffffffffffffffffffffffffffff1673ffffffffffffffffffffffffffffffffffffffff16815260200190815260200160002060009054906101000a900460ff161515146114a3576040517f08c379a00000000000000000000000000000000000000000000000000000000081526004018080602001828103825260348152602001806131fd6034913960400191505060405180910390fd5b60001515601360008373ffffffffffffffffffffffffffffffffffffffff1673ffffffffffffffffffffffffffffffffffffffff16815260200190815260200160002060020160059054906101000a900460ff1615151461154f576040517f08c379a000000000000000000000000000000000000000000000000000000000815260040180806020018281038252602381526020018061327c6023913960400191505060405180910390fd5b33601360008373ffffffffffffffffffffffffffffffffffffffff1673ffffffffffffffffffffffffffffffffffffffff16815260200190815260200160002060000160006101000a81548173ffffffffffffffffffffffffffffffffffffffff021916908373ffffffffffffffffffffffffffffffffffffffff1602179055506001601360008373ffffffffffffffffffffffffffffffffffffffff1673ffffffffffffffffffffffffffffffffffffffff16815260200190815260200160002060010160003373ffffffffffffffffffffffffffffffffffffffff1673ffffffffffffffffffffffffffffffffffffffff16815260200190815260200160002060006101000a81548160ff021916908360ff1602179055506001601360008373ffffffffffffffffffffffffffffffffffffffff1673ffffffffffffffffffffffffffffffffffffffff16815260200190815260200160002060020160006101000a81548163ffffffff021916908363ffffffff160217905550601460008273ffffffffffffffffffffffffffffffffffffffff1673ffffffffffffffffffffffffffffffffffffffff16815260200190815260200160002060009054906101000a900460ff16601360008373ffffffffffffffffffffffffffffffffffffffff1673ffffffffffffffffffffffffffffffffffffffff16815260200190815260200160002060020160046101000a81548160ff0219169083151502179055506001601360008373ffffffffffffffffffffffffffffffffffffffff1673ffffffffffffffffffffffffffffffffffffffff16815260200190815260200160002060020160056101000a81548160ff0219169083151502179055508073ffffffffffffffffffffffffffffffffffffffff167faa38be308bdffe126c2b6be720070355eb22e0efc549ac39221b1ce71642ed4060405160405180910390a250565b600060011515601460003373ffffffffffffffffffffffffffffffffffffffff1673ffffffffffffffffffffffffffffffffffffffff16815260200190815260200160002060009054906101000a900460ff161515146118da576040517f08c379a00000000000000000000000000000000000000000000000000000000081526004018080602001828103825260148152602001807f596f7520617265206e6f7420616e206f776e657200000000000000000000000081525060200191505060405180910390fd5b600954421115611a895781600360003373ffffffffffffffffffffffffffffffffffffffff1673ffffffffffffffffffffffffffffffffffffffff168152602001908152602001600020541015611999576040517f08c379a00000000000000000000000000000000000000000000000000000000081526004018080602001828103825260148152602001807f62616c616e636520696e73756666696369656e7400000000000000000000000081525060200191505060405180910390fd5b6119eb82600360003373ffffffffffffffffffffffffffffffffffffffff1673ffffffffffffffffffffffffffffffffffffffff16815260200190815260200160002054612e2e90919063ffffffff16565b600360003373ffffffffffffffffffffffffffffffffffffffff1673ffffffffffffffffffffffffffffffffffffffff16815260200190815260200160002081905550611a4382600254612e2e90919063ffffffff16565b6002819055507fd83c63197e8e676d80ab0122beba9a9d20f3828839e9a1d6fe81d242e9cd7e6e826040518082815260200191505060405180910390a160019050611a8a565b5b919050565b6000600e73__IterableMapping_______________________63732a2ccf9091846040518363ffffffff1660e01b8152600401808381526020018273ffffffffffffffffffffffffffffffffffffffff1673ffffffffffffffffffffffffffffffffffffffff1681526020019250505060206040518083038186803b158015611b1757600080fd5b505af4158015611b2b573d6000803e3d6000fd5b505050506040513d6020811015611b4157600080fd5b81019080805190602001909291905050509050919050565b60085481565b60146020528060005260406000206000915054906101000a900460ff1681565b60065481565b60036020528060005260406000206000915090505481565b600a5481565b60095481565b6000809054906101000a900473ffffffffffffffffffffffffffffffffffffffff1681565b60058054600181600116156101000203166002900480601f016020809104026020016040519081016040528092919081815260200182805460018160011615610100020316600290048015611c645780601f10611c3957610100808354040283529160200191611c64565b820191906000526020600020905b815481529060010190602001808311611c4757829003601f168201915b505050505081565b600081600360003373ffffffffffffffffffffffffffffffffffffffff1673ffffffffffffffffffffffffffffffffffffffff168152602001908152602001600020541015611d23576040517f08c379a000000000000000000000000000000000000000000000000000000000815260040180806020018281038252601e8152602001807f6572726f722c2062616c616e636520697320696e73756666696369656e74000081525060200191505060405180910390fd5b611d7582600360003373ffffffffffffffffffffffffffffffffffffffff1673ffffffffffffffffffffffffffffffffffffffff16815260200190815260200160002054612e2e90919063ffffffff16565b600360003373ffffffffffffffffffffffffffffffffffffffff1673ffffffffffffffffffffffffffffffffffffffff16815260200190815260200160002081905550611e1e611dd060065484612e2e90919063ffffffff16565b600360008673ffffffffffffffffffffffffffffffffffffffff1673ffffffffffffffffffffffffffffffffffffffff16815260200190815260200160002054612e7890919063ffffffff16565b600360008573ffffffffffffffffffffffffffffffffffffffff1673ffffffffffffffffffffffffffffffffffffffff16815260200190815260200160002081905550611ed6600654600360008060009054906101000a900473ffffffffffffffffffffffffffffffffffffffff1673ffffffffffffffffffffffffffffffffffffffff1673ffffffffffffffffffffffffffffffffffffffff16815260200190815260200160002054612e7890919063ffffffff16565b600360008060009054906101000a900473ffffffffffffffffffffffffffffffffffffffff1673ffffffffffffffffffffffffffffffffffffffff1673ffffffffffffffffffffffffffffffffffffffff168152602001908152602001600020819055508273ffffffffffffffffffffffffffffffffffffffff163373ffffffffffffffffffffffffffffffffffffffff167fddf252ad1be2c89b69c2b068fc378daa952ba7f163c4a11628f55a4df523b3ef846040518082815260200191505060405180910390a36001905092915050565b6000811161201f576040517f08c379a00000000000000000000000000000000000000000000000000000000081526004018080602001828103825260208152602001807f596f752063616e6e6f7420656e746572206e656761746976652076616c75657381525060200191505060405180910390fd5b6000809054906101000a900473ffffffffffffffffffffffffffffffffffffffff1673ffffffffffffffffffffffffffffffffffffffff163373ffffffffffffffffffffffffffffffffffffffff16146120c4576040517f08c379a00000000000000000000000000000000000000000000000000000000081526004018080602001828103825260278152602001806132556027913960400191505060405180910390fd5b60006120de60018054905083612f0090919063ffffffff16565b905060006120fa60018054905083612f4a90919063ffffffff16565b9050600080600090505b6001805490508110156122be5761219a84600360006001858154811061212657fe5b9060005260206000200160009054906101000a900473ffffffffffffffffffffffffffffffffffffffff1673ffffffffffffffffffffffffffffffffffffffff1673ffffffffffffffffffffffffffffffffffffffff16815260200190815260200160002054612e7890919063ffffffff16565b60036000600184815481106121ab57fe5b9060005260206000200160009054906101000a900473ffffffffffffffffffffffffffffffffffffffff1673ffffffffffffffffffffffffffffffffffffffff1673ffffffffffffffffffffffffffffffffffffffff168152602001908152602001600020819055506001818154811061222157fe5b9060005260206000200160009054906101000a900473ffffffffffffffffffffffffffffffffffffffff1673ffffffffffffffffffffffffffffffffffffffff16600073ffffffffffffffffffffffffffffffffffffffff167fddf252ad1be2c89b69c2b068fc378daa952ba7f163c4a11628f55a4df523b3ef866040518082815260200191505060405180910390a38080600101915050612104565b506122e46122d58386612e2e90919063ffffffff16565b82612e7890919063ffffffff16565b90506122fb81600254612e7890919063ffffffff16565b60028190555050505050565b60011515601460003373ffffffffffffffffffffffffffffffffffffffff1673ffffffffffffffffffffffffffffffffffffffff16815260200190815260200160002060009054906101000a900460ff161515146123cd576040517f08c379a00000000000000000000000000000000000000000000000000000000081526004018080602001828103825260148152602001807f596f7520617265206e6f7420616e206f776e657200000000000000000000000081525060200191505060405180910390fd5b601360008373ffffffffffffffffffffffffffffffffffffffff1673ffffffffffffffffffffffffffffffffffffffff16815260200190815260200160002060020160059054906101000a900460ff16612472576040517f08c379a00000000000000000000000000000000000000000000000000000000081526004018080602001828103825260248152602001806132316024913960400191505060405180910390fd5b6000601360008473ffffffffffffffffffffffffffffffffffffffff1673ffffffffffffffffffffffffffffffffffffffff16815260200190815260200160002060010160003373ffffffffffffffffffffffffffffffffffffffff1673ffffffffffffffffffffffffffffffffffffffff16815260200190815260200160002060009054906101000a900460ff1660ff1614612577576040517f08c379a00000000000000000000000000000000000000000000000000000000081526004018080602001828103825260178152602001807f596f75206861766520616c726561647920766f7465642100000000000000000081525060200191505060405180910390fd5b8015612696576001601360008473ffffffffffffffffffffffffffffffffffffffff1673ffffffffffffffffffffffffffffffffffffffff16815260200190815260200160002060010160003373ffffffffffffffffffffffffffffffffffffffff1673ffffffffffffffffffffffffffffffffffffffff16815260200190815260200160002060006101000a81548160ff021916908360ff160217905550601360008373ffffffffffffffffffffffffffffffffffffffff1673ffffffffffffffffffffffffffffffffffffffff168152602001908152602001600020600201600081819054906101000a900463ffffffff168092919060010191906101000a81548163ffffffff021916908363ffffffff16021790555050612730565b6002601360008473ffffffffffffffffffffffffffffffffffffffff1673ffffffffffffffffffffffffffffffffffffffff16815260200190815260200160002060010160003373ffffffffffffffffffffffffffffffffffffffff1673ffffffffffffffffffffffffffffffffffffffff16815260200190815260200160002060006101000a81548160ff021916908360ff1602179055505b5050565b60011515601460003373ffffffffffffffffffffffffffffffffffffffff1673ffffffffffffffffffffffffffffffffffffffff16815260200190815260200160002060009054906101000a900460ff161515146127fa576040517f08c379a00000000000000000000000000000000000000000000000000000000081526004018080602001828103825260148152602001807f596f7520617265206e6f7420616e206f776e657200000000000000000000000081525060200191505060405180910390fd5b6000600e60010160003373ffffffffffffffffffffffffffffffffffffffff1673ffffffffffffffffffffffffffffffffffffffff1681526020019081526020016000205411612895576040517f08c379a00000000000000000000000000000000000000000000000000000000081526004018080602001828103825260218152602001806131dc6021913960400191505060405180910390fd5b3373ffffffffffffffffffffffffffffffffffffffff166108fc600e60010160003373ffffffffffffffffffffffffffffffffffffffff1673ffffffffffffffffffffffffffffffffffffffff168152602001908152602001600020549081150290604051600060405180830381858888f1935050505015801561291d573d6000803e3d6000fd5b506000600e60010160003373ffffffffffffffffffffffffffffffffffffffff1673ffffffffffffffffffffffffffffffffffffffff16815260200190815260200160002081905550565b600060011515601460003373ffffffffffffffffffffffffffffffffffffffff1673ffffffffffffffffffffffffffffffffffffffff16815260200190815260200160002060009054906101000a900460ff16151514612a30576040517f08c379a00000000000000000000000000000000000000000000000000000000081526004018080602001828103825260148152602001807f596f7520617265206e6f7420616e206f776e657200000000000000000000000081525060200191505060405180910390fd5b600260018054905081612a3f57fe5b04601360008473ffffffffffffffffffffffffffffffffffffffff1673ffffffffffffffffffffffffffffffffffffffff16815260200190815260200160002060020160009054906101000a900463ffffffff1663ffffffff161115612cb1576001829080600181540180825580915050600190039060005260206000200160009091909190916101000a81548173ffffffffffffffffffffffffffffffffffffffff021916908373ffffffffffffffffffffffffffffffffffffffff1602179055506001601460008473ffffffffffffffffffffffffffffffffffffffff1673ffffffffffffffffffffffffffffffffffffffff16815260200190815260200160002060006101000a81548160ff021916908315150217905550601360008373ffffffffffffffffffffffffffffffffffffffff1673ffffffffffffffffffffffffffffffffffffffff168152602001908152602001600020600080820160006101000a81549073ffffffffffffffffffffffffffffffffffffffff02191690556002820160006101000a81549063ffffffff02191690556002820160046101000a81549060ff02191690556002820160056101000a81549060ff021916905550508173ffffffffffffffffffffffffffffffffffffffff167f63c204601fad8f75b3722a8a81b870d8a8c806ab155ad60029ceebe142a56157601360008573ffffffffffffffffffffffffffffffffffffffff1673ffffffffffffffffffffffffffffffffffffffff16815260200190815260200160002060020160009054906101000a900463ffffffff16604051808263ffffffff16815260200191505060405180910390a260019050612e04565b601360008373ffffffffffffffffffffffffffffffffffffffff1673ffffffffffffffffffffffffffffffffffffffff168152602001908152602001600020600080820160006101000a81549073ffffffffffffffffffffffffffffffffffffffff02191690556002820160006101000a81549063ffffffff02191690556002820160046101000a81549060ff02191690556002820160056101000a81549060ff021916905550508173ffffffffffffffffffffffffffffffffffffffff167f63c204601fad8f75b3722a8a81b870d8a8c806ab155ad60029ceebe142a56157601360008573ffffffffffffffffffffffffffffffffffffffff1673ffffffffffffffffffffffffffffffffffffffff16815260200190815260200160002060020160009054906101000a900463ffffffff16604051808263ffffffff16815260200191505060405180910390a2600090505b919050565b6012602052816000526040600020602052806000526040600020600091509150505481565b6000612e7083836040518060400160405280601e81526020017f536166654d6174683a207375627472616374696f6e206f766572666c6f770000815250612f94565b905092915050565b600080828401905083811015612ef6576040517f08c379a000000000000000000000000000000000000000000000000000000000815260040180806020018281038252601b8152602001807f536166654d6174683a206164646974696f6e206f766572666c6f77000000000081525060200191505060405180910390fd5b8091505092915050565b6000612f4283836040518060400160405280601a81526020017f536166654d6174683a206469766973696f6e206279207a65726f000000000000815250613054565b905092915050565b6000612f8c83836040518060400160405280601881526020017f536166654d6174683a206d6f64756c6f206279207a65726f000000000000000081525061311a565b905092915050565b6000838311158290613041576040517f08c379a00000000000000000000000000000000000000000000000000000000081526004018080602001828103825283818151815260200191508051906020019080838360005b83811015613006578082015181840152602081019050612feb565b50505050905090810190601f1680156130335780820380516001836020036101000a031916815260200191505b509250505060405180910390fd5b5060008385039050809150509392505050565b60008083118290613100576040517f08c379a00000000000000000000000000000000000000000000000000000000081526004018080602001828103825283818151815260200191508051906020019080838360005b838110156130c55780820151818401526020810190506130aa565b50505050905090810190601f1680156130f25780820380516001836020036101000a031916815260200191505b509250505060405180910390fd5b50600083858161310c57fe5b049050809150509392505050565b60008083141582906131c7576040517f08c379a00000000000000000000000000000000000000000000000000000000081526004018080602001828103825283818151815260200191508051906020019080838360005b8381101561318c578082015181840152602081019050613171565b50505050905090810190601f1680156131b95780820380516001836020036101000a031916815260200191505b509250505060405180910390fd5b508284816131d157fe5b069050939250505056fe596f7520646f206e6f7420686176652066756e647320746f207769746864726177596f752061726520616464696e67206120706572736f6e207468617420697320616c726561647920616d6f6e67206f776e657273746869732061646472657373206973206e6f7420616d6f6e672063616e646964617465736f6e6c79206f776e6572732063616e20696e697469616c697a65206e657720656d697373696f6e5468697320706572736f6e20697320616c726561647920612063616e64696461746521a2646970667358221220c18f0e2cabebf343f7ae086f2f11de10fef46a523ea7c649198875d7dfa4e94664736f6c634300060000336f6e6c79206f776e6572732063616e20696e697469616c697a65206e657720656d697373696f6e",
  "source": "pragma solidity ^0.6.0;\r\n\r\nimport './Sharing.sol';\r\n\r\nlibrary IterableMapping {\r\n    // Iterable mapping from address to uint;\r\n    struct Map {\r\n        address[] keys;\r\n        mapping(address => uint) values;\r\n        mapping(address => uint) indexOf;\r\n        mapping(address => bool) inserted;\r\n\r\n    }\r\n\r\n    function get(Map storage map, address key) public view returns (uint) {\r\n        return map.values[key];\r\n    }\r\n\r\n    function getKeyAtIndex(Map storage map, uint index) public view returns (address) {\r\n        return map.keys[index];\r\n    }\r\n\r\n    function size(Map storage map) public view returns (uint) {\r\n        return map.keys.length;\r\n    }\r\n\r\n    function set(Map storage map, address key, uint val) public {\r\n        if (map.inserted[key]) {\r\n            map.values[key] = val;\r\n        } else {\r\n            map.inserted[key] = true;\r\n            map.values[key] = val;\r\n            map.indexOf[key] = map.keys.length;\r\n            map.keys.push(key);\r\n        }\r\n    }\r\n\r\n    function remove(Map storage map, address key) public {\r\n        if (!map.inserted[key]) {\r\n            return;\r\n        }\r\n\r\n        delete map.inserted[key];\r\n        delete map.values[key];\r\n\r\n        uint index = map.indexOf[key];\r\n        uint lastIndex = map.keys.length - 1;\r\n        address lastKey = map.keys[lastIndex];\r\n\r\n        map.indexOf[lastKey] = index;\r\n        delete map.indexOf[key];\r\n\r\n        map.keys[index] = lastKey;\r\n        map.keys.pop();\r\n    }\r\n}\r\n\r\ncontract VotingToken is Sharing(1000) {\r\n    using IterableMapping for IterableMapping.Map;\r\n\r\n    string public name = \"ValTokenBurnFull\";\r\n    string public symbol = \"VLTBF\";\r\n    uint256 public feePerTransaction = 1;\r\n    uint8 public decimals = 0;\r\n    uint256 public voteDuration;\r\n    //from this time on tokens may be burned +24 hours from release date\r\n    uint256 public burnStartTime = now + 24 hours;\r\n    uint256 public totalReward;\r\n    uint256 restReward;\r\n    uint256 lastDivideRewardTime = now;\r\n    uint ownerReward;\r\n    //a list of events to be checked on Etherscan.io\r\n    event Transfer(address indexed _from, address indexed _to, uint256 _value);\r\n    event Approval(address indexed _owner, address indexed _spender, uint256 _value);\r\n    event Burned(uint256 amount);\r\n    event CandidateAdded(address indexed _candidate);\r\n    event VoteHappened(address indexed _candidate, uint256 _numberOfVotes);\r\n    event Received(address sender, uint256 value);\r\n    \r\n    struct CandidateData {\r\n        address proposal;\r\n        mapping(address => uint8) votes;\r\n        uint32 positive;\r\n        bool alreadyOwner;\r\n        bool isCandidate;\r\n    }\r\n    \r\n    IterableMapping.Map private map;\r\n    \r\n    // mapping(address => uint256) public balanceOf;\r\n    mapping(address => mapping(address => uint256)) public allowance;\r\n    mapping(address => CandidateData) private candidates;\r\n    mapping(address => bool) public eligibleOwners;\r\n    \r\n    //modifier grands access to owners only\r\n    modifier onlyOwners() {\r\n        require(eligibleOwners[msg.sender] == true, \"You are not an owner\");\r\n        _;\r\n    }\r\n    \r\n\r\n    constructor() public {\r\n        owner = msg.sender;\r\n        for (uint i = 0; i < owners.length; i++ ){\r\n            eligibleOwners[owners[i]] = true; \r\n            // balanceOf[owners[i]] = tokenPerOwner;\r\n            map.set(owners[i], 0);\r\n        }\r\n    }\r\n    //Reward distribution\r\n    function divideUpReward() private onlyOwners {\r\n        for (uint8 i = 0; i < map.size(); i++){\r\n            ownerReward = totalReward * balanceOf[map.getKeyAtIndex(i)] / totalTokenSupply;\r\n            map.values[map.getKeyAtIndex(i)] += ownerReward; \r\n        }\r\n        totalReward = 0;\r\n    }\r\n\r\n    function withdrawReward() public onlyOwners {\r\n        require(map.values[msg.sender] > 0, 'You do not have funds to withdraw');\r\n        msg.sender.transfer(map.values[msg.sender]);\r\n        map.values[msg.sender] = 0;\r\n    }\r\n\r\n    function getEthBalance(address _address) public view returns(uint256) {\r\n        return map.get(_address);\r\n    }\r\n    \r\n    receive() external payable {\r\n        totalReward += msg.value;\r\n        divideUpReward();\r\n        emit Received(msg.sender, msg.value);\r\n    }\r\n    //Voting functionality\r\n    \r\n    function addCandidate(address _candidateAddress) public onlyOwners {\r\n        require(eligibleOwners[_candidateAddress] == false, 'You are adding a person that is already among owners');\r\n        require(candidates[_candidateAddress].isCandidate == false, 'This person is already a candidate!');\r\n        candidates[_candidateAddress].proposal = msg.sender;\r\n        candidates[_candidateAddress].votes[msg.sender] = 1;\r\n        candidates[_candidateAddress].positive = 1;\r\n        candidates[_candidateAddress].alreadyOwner = eligibleOwners[_candidateAddress];\r\n        candidates[_candidateAddress].isCandidate = true;\r\n        emit CandidateAdded(_candidateAddress);\r\n    }\r\n    \r\n    function vote(address _candidateAddress, bool _choice) public onlyOwners {\r\n        require(candidates[_candidateAddress].isCandidate, 'this address is not among candidates');\r\n        require(candidates[_candidateAddress].votes[msg.sender] == 0, 'You have already voted!');\r\n        if(_choice){\r\n            candidates[_candidateAddress].votes[msg.sender] = 1;\r\n            candidates[_candidateAddress].positive++;\r\n        }else {\r\n            candidates[_candidateAddress].votes[msg.sender] = 2;\r\n        }\r\n    }\r\n    \r\n    function endVote(address _candidateAddress) public onlyOwners returns(bool decision) {\r\n        // require(candidates[_candidateAddress].totalVotes == owners.length, 'Not enoght votes to end the voting');\r\n        if(candidates[_candidateAddress].positive > owners.length / 2) {\r\n            owners.push(_candidateAddress);\r\n            eligibleOwners[_candidateAddress] = true;\r\n            delete candidates[_candidateAddress];\r\n            emit VoteHappened(_candidateAddress, candidates[_candidateAddress].positive);\r\n            return true;\r\n\r\n        }else {\r\n            delete candidates[_candidateAddress];\r\n            emit VoteHappened(_candidateAddress, candidates[_candidateAddress].positive);\r\n            return false;\r\n        }\r\n        \r\n    }\r\n    \r\n      //Transfer function\r\n    function transfer(address _to, uint256 _value)\r\n        public\r\n        payable\r\n        returns (bool success)\r\n    {\r\n        require(balanceOf[msg.sender] >= _value, 'error, balance is insufficient');\r\n        balanceOf[msg.sender] = balanceOf[msg.sender].sub(_value);\r\n        balanceOf[_to] = balanceOf[_to].add(_value.sub(feePerTransaction));\r\n        balanceOf[owner] = balanceOf[owner].add(feePerTransaction);\r\n        //transfer event\r\n        emit Transfer(msg.sender, _to, _value);\r\n        return true;\r\n    }\r\n    //allowance implementation\r\n    function approve(address _spender, uint256 _value) public returns (bool success) {\r\n      allowance[msg.sender][_spender] = _value;\r\n\r\n      //will trigger the approve event\r\n      emit Approval(msg.sender, _spender, _value);\r\n      return true;\r\n  }\r\n\r\n    function transferFrom(address _from, address _to, uint256 _value) public returns(bool) {\r\n      require(balanceOf[_from] >= _value, \"insufficient balance\");\r\n      require(allowance[_from][msg.sender] >= _value, \"allowance exceeded\");\r\n      balanceOf[_from] = balanceOf[_from].sub(_value);\r\n      balanceOf[_to] = balanceOf[_to].add(_value);\r\n      allowance[_from][msg.sender] = allowance[_from][msg.sender].sub(_value);\r\n      emit Transfer(_from, _to, _value);\r\n      return true;\r\n    }\r\n\r\n    //burnign function\r\n  function burn(uint256 _value)  public onlyOwners returns (bool success)  {\r\n      //we restrict ourseleves to burn tokens after some perion of time.\r\n      if (now > burnStartTime) {\r\n          //checking that amount is less or equal to user's balance\r\n          require(balanceOf[msg.sender] >= _value, 'balance insufficient');\r\n          //decreasing the users balance by the amount\r\n          balanceOf[msg.sender] = balanceOf[msg.sender].sub(_value);\r\n            //decreasing the totalSupply by the amount\r\n          totalTokenSupply = totalTokenSupply.sub(_value);\r\n          emit Burned(_value);\r\n          return true;\r\n      }\r\n  }\r\n}\r\n\r\n\r\n\r\n\r\n\r\n\r\n\r\n\r\n\r\n\r\n",
  "sourcePath": "D:\\work\\projects\\my-token\\contracts\\VotingToken.sol",
  "compiler": {
    "name": "solc",
    "version": "0.6.0+commit.26b70077.Emscripten.clang"
  },
  "schemaVersion": "3.2.0",
  "updatedAt": "2020-07-13T13:24:21.654Z",
  "devdoc": {
    "methods": {}
  },
  "userdoc": {
    "methods": {}
  }
}